:020000040800F2
:10000000600600206D0100087501000877010008F6
:10001000790100087B0100087D0100080000000054
:100020000000000000000000000000007F01000848
:10003000810100080000000083010008850100081C
:100040008701000887010008870100088701000870
:100050008701000887010008870100088701000860
:100060008701000887010008870100088701000850
:100070008701000887010008870100088701000840
:100080008701000887010008870100088701000830
:100090008701000887010008870100088701000820
:1000A0008701000887010008870100088701000810
:1000B0008701000887010008870100088701000800
:1000C00087010008870100088701000887010008F0
:1000D00087010008870100088701000887010008E0
:1000E00087010008870100088701000800F002F876
:1000F00000F02CF80AA090E8000C82448344AAF196
:100100000107DA4501D100F021F8AFF2090EBAE893
:100110000F0013F0010F18BFFB1A43F0010318473B
:100120007006000080060000002300240025002641
:10013000103A28BF78C1FBD8520728BF30C148BF4A
:100140000B6070471FB51FBD10B510BD00F058F80B
:100150001146FFF7F7FF00F0CDFA00F076F803B490
:10016000FFF7F2FF03BC00F07DF80000094880476C
:1001700009480047FEE7FEE7FEE7FEE7FEE7FEE789
:10018000FEE7FEE7FEE7FEE704480549054A064BA1
:100190007047000021050008ED0000086000002005
:1001A0006006002060020020600200204FF0000284
:1001B00000B5134694469646203922BFA0E80C505D
:1001C000A0E80C50B1F12001BFF4F7AF090728BF38
:1001D000A0E80C5048BF0CC05DF804EB890028BFB4
:1001E00040F8042B08BF704748BF20F8022B11F0DD
:1001F000804F18BF00F8012B704770477047704759
:10020000754600F02BF8AE4605006946534620F0CF
:100210000700854618B020B5FFF7B6FFBDE82040BF
:100220004FF000064FF000074FF000084FF0000BB2
:10023000AC46ACE8C009ACE8C009ACE8C009ACE821
:10024000C00921F007018D46704710B50446AFF391
:1002500000802046BDE81040FFF781BF004870478E
:100260000000002001491820ABBEFEE72600020076
:1002700070470000B0B582B040F2002040F60004A4
:10028000C1F60300C4F2010401AD019020462946E5
:1002900000F00EF84FF48060ADF8040004208DF8F3
:1002A00007002046294600F003F802B0B0BD000068
:1002B0002DE9F041CA7802F00F0CD30644BF8B78C9
:1002C0004CEA030C09880B0621D0056800234FF087
:1002D00001084FF00F0E002608E000BF282A08BFD3
:1002E00047610136082E03F104030FD008FA06F720
:1002F0000F42F6D00EFA03F425EA04040CFA03F5D3
:10030000482A45EA0405E9D10761EAE70560B1F545
:10031000807F38BFBDE8F081446800234FF4807EC1
:100320004FF00F08002607E0282A08BF4761013672
:10033000082E03F1040310D00EFA06F707EA0105B0
:10034000BD42F4D108FA03F5AC430CFA03F5482A90
:1003500044EA0504E8D10761E9E74460BDE8F081BB
:10036000002941F21801C4F202010A680CBF22EA16
:10037000000010430860704780B544F2040001217A
:10038000FFF7EEFF80BD000010B541F20404C4F297
:100390000204226802F00C02082A41F20022C0F294
:1003A0007A021CD12368D4F800C0C3F3834E5FEAFD
:1003B000CC330EF1020C06D440F60012C0F23D021E
:1003C0000CFB02F20BE023689B0302D40CFB02F24D
:1003D00005E040F60012C0F23D020CFB02F20260A2
:1003E000226840F28073C2F30312C0F600039A5CE5
:1003F0000168D14041602268C2F302229A5C21FA6E
:1004000002F282602268C2F3C2229A5C40F27C73DC
:10041000D140C1602268C0F60003C2F381329A5C09
:10042000B1FBF2F1016110BD002100BF425C01315E
:10043000002AFBD14A1E022A38BF70470239002227
:10044000435C10F802C0835400F801C00132013946
:100450008A42F5DB7047000080B500F001F880BDEE
:1004600082B041F204000021C4F202000191009127
:1004700050F8041C41F4803140F8041C50F8041C6E
:1004800001F400310091019901310191009919B9EC
:100490000199B1F5A06FF1D150F8041C890354BF44
:1004A0000021012100910099012936D142F2000179
:1004B000C4F202010A6842F010020A600A6822F0DF
:1004C00007020A600A6842F002020A6001680160DD
:1004D00001680160016841F480610160016821F4F4
:1004E0007C110160016841F4E811016050F8041CBE
:1004F00041F0807140F8041C50F8041C8901FBD5C0
:10050000016821F003010160016841F0020101600E
:10051000016801F00C010829FAD102B0704700000F
:1005200080B541F20000C4F202000168002241F0EF
:10053000010101604168CFF6FF021140416001688E
:100540004FF6FF72CFF6F66211400160016821F4A8
:1005500080210160416821F4FE0141604FF41F01D8
:100560008160FFF779FF4EF60850CEF200004FF0A1
:100570000061016080BD00008289002942F40053BF
:1005800008BF22F4005383817047000010B584B087
:100590004FF416500090002043F60004ADF80C0014
:1005A00001904FF44020C4F20104029069462046B5
:1005B00000F00CF820460121FFF7DEFF04B010BD6B
:1005C0000088084018BF01207047000070B586B051
:1005D0000446008A0D46C98820F440500843208212
:1005E000A0894EF6F3110840A9882A896B8908432F
:1005F00010431843A081A08AA98920F440700843C1
:1006000001AEA0823046FFF7BFFE43F6000106F1BF
:100610000800C4F201018C4208BF06F10C0000681A
:100620001922B4F90C1050432A680223002948BF4C
:10063000012302FA03F1B0FBF1F048F21F51C5F2B9
:10064000EB11A0FB01235A096FF0630302FB0300C7
:10065000B4F90C300426002B48BF032600FA06F03C
:1006600000F13200A0FB01014FF00F0048BF07204E
:1006700000EA511040EA0210208106B070BD00006F
:1006800080886FF35F20704710B543F60004C4F212
:10069000010400BF20462021FFF792FF0028F9D077
:1006A0002046FFF7EDFFC0B210BD00006FF35F21E1
:1006B00081807047B0B543F600050446C4F20105D9
:1006C00028468021FFF77CFF0028F9D028462146E4
:1006D000FFF7ECFFB0BD000010B50178002908BF9E
:1006E00010BD441EC8B2FFF7E5FFA1780134002910
:1006F000F8D110BD9AB0FFF73FFEFFF7BBFDFFF743
:1007000045FF13A0FFF7E8FF002701AC15A51AA6C7
:1007100012E0F8B2002727542046FFF785FE28464E
:10072000FFF7DAFF2046FFF7D7FF3046FFF7D4FF89
:1007300020466421FFF73AFDFFF7A6FF0D2818BFFA
:100740000A28E6D0F9B26229F6D801376054F3E7F7
:100750004E686170206368756F69206B79207475CD
:100760003A0D0A004368756F692064616F206E67F7
:10077000756F633A200000000D0A000002040608AD
:100780000000000001020304010203040607080937
:10079000A0070008000000206006000028010008F3
:04000005080000ED02
:00000001FF
