:020000040800F2
:10000000680600206D0100087501000877010008EE
:10001000790100087B0100087D0100080000000054
:100020000000000000000000000000007F01000848
:10003000810100080000000083010008850100081C
:100040008701000887010008870100088701000870
:100050008701000887010008870100088701000860
:100060008701000887010008870100088701000850
:100070008701000887010008870100088701000840
:100080008701000887010008870100088701000830
:100090008701000887010008870100088701000820
:1000A0008701000887010008870100088701000810
:1000B0008701000887010008870100088701000800
:1000C00087010008870100088701000887010008F0
:1000D00087010008870100088701000887010008E0
:1000E00087010008870100088701000800F002F876
:1000F00000F02CF80AA090E8000C82448344AAF196
:100100000107DA4501D100F021F8AFF2090EBAE893
:100110000F0013F0010F18BFFB1A43F0010318473B
:10012000FC0700000C080000002300240025002626
:10013000103A28BF78C1FBD8520728BF30C148BF4A
:100140000B6070471FB51FBD10B510BD00F031F832
:100150001146FFF7F7FF00F0B3FB00F04FF803B4D0
:10016000FFF7F2FF03BC00F057F800000948804792
:1001700009480047FEE7FEE7FEE7FEE7FEE7FEE789
:10018000FEE7FEE7FEE7FEE704480549054A064BA1
:100190007047000011060008ED000008680000200C
:1001A000680600206802002068020020704770473F
:1001B0007047754600F02CF8AE4605006946534678
:1001C00020F00700854618B020B5FFF7DDFFBDE839
:1001D00020404FF000064FF000074FF000084FF0AE
:1001E000000BAC46ACE8C009ACE8C009ACE8C009FB
:1001F000ACE8C00921F007018D46704710B50446F0
:10020000AFF300802046BDE81040FFF7A8BF000014
:10021000004870470000002001491820ABBEFEE7EF
:10022000260002007047000080B582B001200090D7
:100230004FF400618DF806006846ADF8041000F038
:1002400003F802B080BD00008179002940F200412E
:10025000C4F201011FD002680B6893430B604B6826
:1002600093434B60037943EA010CDCF800301A43F6
:10027000CCF8002002688B6893438B60CB68934373
:10028000CB60407910280ED1886810438860C86818
:100290001043C86070470279006811430A6822EA77
:1002A000000008607047084301681143016070470F
:1002B000B0B582B0012040F60004C4F60300C4F2D9
:1002C000010401AD01902046294600F015F842F2E4
:1002D0000000C1F20300019004F50060294600F01F
:1002E0000BF840F20040C0F203400190204629463E
:1002F00000F002F802B0B0BD2DE9F041CA7802F07A
:100300000F0CD30644BF8B784CEA030C09880B060C
:1003100021D0056800234FF001084FF00F0E002692
:1003200008E000BF282A08BF47610136082E03F104
:1003300004030FD008FA06F70F42F6D00EFA03F4C2
:1003400025EA04040CFA03F5482A45EA0405E9D134
:100350000761EAE70560B1F5807F38BFBDE8F0814D
:10036000446800234FF4807E4FF00F08002607E01A
:10037000282A08BF47610136082E03F1040310D074
:100380000EFA06F707EA0105BD42F4D108FA03F5B3
:10039000AC430CFA03F5482A44EA0504E8D10761A6
:1003A000E9E74460BDE8F081416170470161704751
:1003B00010B582B04FF4A06000F048F80620C0F2FB
:1003C000001001AC0190204600F010F82520C0F28A
:1003D00000100190204600F009F81C20C0F2001027
:1003E0000190204600F002F802B010BD10B5C178AF
:1003F00000294EF20011CEF200011AD04EF60C5236
:10040000CEF200021268072323EA12220F23C2F160
:10041000040C23FA02F24378847890F800E003FA9F
:100420000CF322401A43120101EB0E0383F8002360
:1004300000E080310078012300F01F0203FA02F28D
:10044000C0F3421041F8202010BD000040F0806051
:100450004EF60C5140F0FD70CEF20001086070477E
:10046000002941F21C01C4F202010A680CBF22EA11
:100470000000104308607047002941F21801C4F2DF
:1004800002010A680CBF22EA0000104308607047AE
:1004900080B544F215000121FFF7EEFF0120012194
:1004A000FFF7DEFF80BD000010B541F20404C4F286
:1004B0000204226802F00C02082A41F20022C0F273
:1004C0007A021CD12368D4F800C0C3F3834E5FEADC
:1004D000CC330EF1020C06D440F60012C0F23D02FD
:1004E0000CFB02F20BE023689B0302D40CFB02F22C
:1004F00005E040F60012C0F23D020CFB02F2026081
:10050000226840F60A13C2F30312C0F600039A5C95
:100510000168D14041602268C2F302229A5C21FA4C
:1005200002F282602268C2F3C2229A5C40F606138D
:10053000D140C1602268C0F60003C2F381329A5CE8
:10054000B1FBF2F1016110BD80B500F001F880BD92
:1005500082B041F204000021C4F202000191009136
:1005600050F8041C41F4803140F8041C50F8041C7D
:1005700001F400310091019901310191009919B9FB
:100580000199B1F5A06FF1D150F8041C890354BF53
:100590000021012100910099012936D142F2000188
:1005A000C4F202010A6842F010020A600A6822F0EE
:1005B00007020A600A6842F002020A6001680160EC
:1005C00001680160016841F480610160016821F403
:1005D0007C110160016841F4E811016050F8041CCD
:1005E00041F0807140F8041C50F8041C8901FBD5CF
:1005F000016821F003010160016841F0020101601E
:10060000016801F00C010829FAD102B0704700001E
:1006100080B541F20000C4F202000168002241F0FE
:10062000010101604168CFF6FF021140416001689D
:100630004FF6FF72CFF6F66211400160016821F4B7
:1006400080210160416821F4FE0141604FF41F01E7
:100650008160FFF779FF4EF60850CEF200004FF0B0
:100660000061016080BD00000288002942F00103A2
:1006700008BF22F0010303807047000080B584B0FA
:1006800041F61F4001900920029001A94FF08040DF
:1006900000F016F84FF080400121012200F008F828
:1006A0004FF080400121FFF7DFFF04B080BD000064
:1006B000002A82890CBF22EA01011143818170471F
:1006C00040F6FF33B0F800C0C4F2000398420FDCDC
:1006D000B0F1804F1ED040F20043C4F200039842B4
:1006E00018D040F60003C4F20003984212D016E07E
:1006F00040F60043C4F2000398420BD043F200439B
:10070000C4F20103984205D042F60043C4F201034B
:10071000984204D14B882CF0700243EA020C41F25B
:10072000004240F48063C4F20002934204D0CA88BD
:100730002CF4407342EA030CA0F800C08A8882853A
:10074000A0F18042A2F596320B884FEAB222072A26
:10075000038507D8012303FA02F212F0E50F1CBF4C
:10076000097A01860121818270470000828900296F
:1007700042F4005308BF22F4005383817047000005
:1007800010B584B04FF4165000900C2043F60004CE
:10079000CDF80A000020C4F20104ADF80400CDF841
:1007A00006006946204600F025F8204640F2255113
:1007B000012200F007F820460121FFF7D7FF04B01F
:1007C00010BD0000C1F3421301F01F0C1421022BD5
:1007D00008BF1021012B4FF0010308BF0C21002A94
:1007E00003FA0CF243580CBF23EA02021A434250A8
:1007F0007047000070B586B00446008A0D46C9886F
:1008000020F4405008432082A0894EF6F31108409E
:10081000A9882A896B89084310431843A081A08ABC
:10082000A98920F44070084301AEA0823046FFF74A
:100830003BFE43F6000106F10800C4F201018C42C0
:1008400008BF06F10C0000681922B4F90C105043DF
:100850002A680223002948BF012302FA03F1B0FBF2
:10086000F1F048F21F51C5F2EB11A0FB01235A0928
:100870006FF0630302FB0300B4F90C300426002B75
:1008800048BF032600FA06F000F13200A0FB010188
:100890004FF00F0048BF072000EA511040EA021055
:1008A000208106B070BD000040F26001C2F200017C
:1008B000002200280A6008BF704700BFFEE7000062
:1008C00040F60004C4F20104FFF7E2FDFFF7D6FE94
:1008D000FFF7EEFCFFF754FFFFF7A6FCFFF768FDFC
:1008E00020464FF40051FFF761FD4FF47A70FFF797
:1008F000DBFF20464FF40051FFF756FD4FF47A70AE
:10090000FFF7D2FFECE70204060800000000010236
:100910000304010203040607080900002C0900086B
:0C0920000000002068060000280100080C
:04000005080000ED02
:00000001FF
