:020000040800F2
:100000007806002091010008990100089B01000872
:100010009D0100089F010008A101000800000000E8
:10002000000000000000000000000000A301000824
:10003000A501000800000000A7010008A9010008B0
:10004000AB010008AB010008AB010008AB010008E0
:10005000AB010008AB010008AB010008AB010008D0
:10006000AB010008AB010008AB010008AB010008C0
:10007000AB010008AB010008AB010008AB010008B0
:10008000AB010008AB010008AB010008AB010008A0
:10009000AB010008AB010008AB010008AB01000890
:1000A000AB010008AB010008AB010008AB01000880
:1000B000050A0008AB010008AB010008AB0100080D
:1000C000AB010008AB010008AB010008AB01000860
:1000D000AB010008AB010008AB010008AB01000850
:1000E000AB010008AB010008AB01000800F002F80A
:1000F00000F03FF80AA090E8000C82448344AAF183
:100100000107DA4501D100F034F8AFF2090EBAE880
:100110000F0013F0010F18BFFB1A43F0010318473B
:100120009C0C0000BC0C0000103A24BF78C878C1B9
:10013000FAD8520724BF30C830C144BF04680C60ED
:10014000704700000023002400250026103A28BF35
:1001500078C1FBD8520728BF30C148BF0B60704739
:10016000642900F07180002070471FB51FBD10B5D5
:1001700010BD00F0BAF91146FFF7F7FF00F0FCFDE3
:1001800000F0D8F903B4FFF7F2FF03BC00F0E0F988
:100190000948804709480047FEE7FEE7FEE7FEE71B
:1001A000FEE7FEE7FEE7FEE7FEE7FEE70448054957
:1001B000054A064B7047000045090008ED0000089D
:1001C00078000020780600207802002078020020C5
:1001D0000FB41CB5074B06AA7B44694600900598EE
:1001E00000F06BF90020694600F07AF91CBC5DF85C
:1001F00014FB00000503000070B504468569006823
:10020000C10601D5302600E02026C00707D070BD0A
:10021000D4E9012130469047206A401C20626D1EBF
:10022000F6D570BD70B5044685690078C00707D162
:1002300070BDD4E9012120209047206A401C206233
:100240006D1EF6D570BD00002DE9F0410646002474
:1002500010687529314616A510D0AFF3008000282C
:1002600002DA404213A507E031688A0701D512A5DA
:1002700002E0490704D511A5012401E0AFF3008095
:1002800000210A2206F1240709E0B0FBF2FCB0FBD2
:10029000F2F302FB1C00303078541846491C002849
:1002A000F3D123462A463046BDE8F04100F0A7B816
:1002B000000000002D0000002B00000020000000C6
:1002C0002DE9F05F894604464FF0000ADFF824B1BB
:1002D000FB44C0F820A02046E168884700287DD074
:1002E000252806D0D4E901219047206A401C2062CD
:1002F000F1E700255F462046E1688847202806464A
:1003000007DB312E05D2B81910F8200C08B10543CF
:10031000F1E7A80701D525F00405C4F81CA00027C3
:10032000C4F818A02A2E09D0304600F01DFD38B3BD
:1003300004EB8708303EC8F8186019E059F8041B30
:10034000204604EB87029161E1688847012F064649
:1003500018D1E069002820DA25F020051DE0D8F842
:10036000180000EB800006EB40003038C8F8180099
:100370002046E1688847064600F0F6FC0028EED1EA
:10038000012F0AD02E2E08D12046E16888477F1C15
:100390000646022F45F02005C4DBA069002803DAD9
:1003A000404245F00105A061E80701D025F01005A5
:1003B000A6B1A6F14100192802D8203645F40065FF
:1003C0004A463146204625604D46FFF7C9FE60B1DA
:1003D000012807D0ED1D25F0070000E007E000F13F
:1003E000080978E705F1040975E730467AE7206ADD
:1003F000BDE8F09FD40A00007047704770472DE9B0
:10040000F0470D4699469246044600F124080168DB
:10041000880604D5E06921F01001216000E0012088
:10042000A84201DD471B00E00027A1697A1902EB11
:100430000900081AA0612078C00602D42046FFF700
:10044000DBFE002608E0D4E901211AF806009047F7
:10045000206A401C761C20624E45F4DB2078C006E2
:100460000AD52046FFF7C8FE06E0D4E90121302076
:100470009047206A401C2062381EA7F10107F4DC77
:1004800007E0D4E9012118F805009047206A401CD4
:100490002062281EA5F10105F3DC2046FFF7C2FE0D
:1004A0002078000602D50220BDE8F0870120FBE796
:1004B00001694A1C02610878704700B58FB0CDE928
:1004C00001310021059105497944CDE90310114618
:1004D0006846FFF7F5FE0FB000BD0000E5FFFFFF27
:1004E0000A6802F8010B0A607047754600F02CF8A4
:1004F000AE4605006946534620F00700854618B011
:1005000020B5FFF753FEBDE820404FF000064FF046
:1005100000074FF000084FF0000B21F00701AC4638
:10052000ACE8C009ACE8C009ACE8C009ACE8C00957
:100530008D46704710B50446AFF300802046BDE8F5
:100540001040FFF71FBE0000004870471800002051
:1005500001491820ABBEFEE72600020070472DE9D6
:10056000F041024600250026002000230024002739
:1005700091F803C00CF00F0591F803C00CF0100CBB
:10058000BCF1000F03D091F802C04CEA050591F8C8
:1005900000C0BCF1000F31D0146800202BE04FF0F8
:1005A000010C0CFA00F3B1F800C00CEA03069E42FD
:1005B00020D183004FF00F0C0CFA03F7BC4305FA6F
:1005C00003FC4CEA040491F803C0BCF1280F06D1E7
:1005D0004FF0010C0CFA00FCC2F814C00AE091F8CC
:1005E00003C0BCF1480F05D14FF0010C0CFA00FC20
:1005F000C2F810C0401C0828D1D31460B1F800C064
:10060000BCF1FF0F34DD546800202EE000F1080C2F
:100610004FF0010808FA0CF3B1F800C00CEA030629
:100620009E4221D183004FF00F0C0CFA03F7BC431C
:1006300005FA03FC4CEA040491F803C0BCF1280F4E
:1006400005D100F1080C08FA0CF8C2F8148091F8F2
:1006500003C0BCF1480F07D100F1080C4FF00108AE
:1006600008FA0CF8C2F81080401C0828CED3546059
:10067000BDE8F08102460020D3680B400BB1012099
:1006800000E000207047416170470AB1016100E05D
:100690004161704708B50120ADF8000010208DF8C9
:1006A000030003208DF8020069460448FFF757FF56
:1006B00001210248FFF7E7FF08BD000000080140E4
:1006C00070B5002100230F22C47804B3154C2468B0
:1006D00004F4E064C4F5E064210AC1F10403CA40F3
:1006E000447804FA03F184781440214309010E4C44
:1006F0000678A155047804F01F050124AC40057864
:100700006D11AD0005F1E025C5F8004109E0047860
:1007100004F01F050124AC40044D0678761145F81D
:10072000264070BD0CED00E000E400E080E100E058
:1007300029B1064AD2690243044BDA6104E0034A54
:10074000D2698243014BDA61704700000010024019
:1007500029B1064A92690243044B9A6104E0034AB4
:1007600092698243014B9A61704700000010024079
:1007700010B5012144F20400FFF7EAFF0121084609
:10078000FFF7D6FF10BD000030B500210022002485
:1007900000232D4D6D6805F00C0121B1042905D011
:1007A000082923D105E0294D056022E0274D056089
:1007B0001FE0254D6D6805F47012234D6D6805F43A
:1007C0008034022505EB92421CB9214D554305604A
:1007D0000BE01D4D6D6805F400351DB11C4D5543F2
:1007E000056002E0194D5543056002E0174D0560B4
:1007F00000BF00BF144D6D6805F0F0010909154DEB
:100800006B5C0568DD4045600F4D6D6805F4E06187
:10081000090A104D6B5C4568DD4085600A4D6D68C6
:1008200005F46051C90A0B4D6B5C4568DD40C5603D
:10083000054D6D6805F44041890B074D6B5CC5683B
:10084000B5FBF3F5056130BD0010024000127A00DF
:1008500000093D00030000201300002010B500F047
:1008600001F810BD0CB500200190009033480068DD
:1008700040F480303149086000BF3048006800F41F
:10088000003000900198401C0190009818B9019820
:10089000B0F5A06FF1D12948006800F4003010B124
:1008A0000120009001E0002000900098012843D131
:1008B0002348006840F0100021490860084600689D
:1008C00020F0070008600846006840F00200086059
:1008D0001A48406819494860084640684860084618
:1008E000406840F4806048600846406820F47C100E
:1008F00048600846406840F4E810486008460068D0
:1009000040F08070086000BF0C48006800F0007084
:100910000028F9D00948406820F0030007494860E2
:100920000846406840F00200486000BF0348406845
:1009300000F00C000828F9D10CBD000000100240A6
:100940000020024010B51348006840F00100114932
:10095000086008464068104908400E49486008464B
:1009600000680E4908400B4908600846006820F4FA
:10097000802008600846406820F4FE0048604FF47C
:100980001F008860FFF76AFF4FF0006004490860AD
:1009900010BD0000001002400000FFF8FFFFF6FE4F
:1009A00008ED00E01FB50020ADF80A00ADF8060024
:1009B00041F61740ADF8040042F20F70ADF80800A0
:1009C00001A94FF0804000F0A5F80121880700F050
:1009D00075F801221146900700F093F8012188076D
:1009E00000F072F81C208DF8000000208DF8010046
:1009F00001208DF802008DF803006846FFF760FEC5
:100A00001FBD000010B586B00121880700F068F80E
:100A100000283FD00121880700F053F801211E482B
:100A2000FFF728FEC0F10100C4B2224601211A4896
:100A3000FFF72BFE19480078401C1849087008463B
:100A400000783C2817DB0020087015480078401C0F
:100A500013490870084600783C280CDB0020087019
:100A600010480078401C0F49087008460078182884
:100A700001DB0020087009480078009008480378DE
:100A80000848027808A101A8FFF7A2FB01A800F01E
:100A9000CBF800BF06B010BD0008014000000020E8
:100AA0000100002002000020253032643A25303257
:100AB000643A253032640D0A00000000CA43028205
:100AC0007047CA430282704721B1028842F0010296
:100AD000028004E002884FF6FE731A4002807047DD
:100AE00030B50246002000230024158A05EA0103E0
:100AF000958905EA010413B10CB1012000E0002042
:100B000030BD1AB183890B43838102E083898B4313
:100B100083817047002202881D4B98420ED01D4BE6
:100B200098420BD0B0F1804F08D01B4B984205D0B3
:100B30001A4B984202D01A4B984204D14FF68F7349
:100B40001A404B881A43174B984207D0164B9842CD
:100B500004D04FF6FF431A40CB881A4302808B889B
:100B600083850B8803850A4B98420BD0094B98422A
:100B700008D00E4B984205D00D4B984202D00D4B39
:100B8000984201D10B7A03860123838270470000CB
:100B9000002C0140003401400004004000080040E7
:100BA000000C0040001000400014004000400140D4
:100BB000004401400048014000B585B04FF400708A
:100BC000ADF8100018208DF8130003208DF81200E6
:100BD00004A91348FFF7C3FC4FF48060ADF8100080
:100BE00004208DF8130004A90D48FFF7B8FC4FF45A
:100BF000615000900820ADF80A000020ADF8040014
:100C0000ADF80C00ADF80600ADF8080069460548DF
:100C100000F03AF80121034800F01CF805B000BDCF
:100C2000000801400038014010B504460BE000BF49
:100C30008021074800F01AF80028F9D014F8011BA9
:100C4000034800F08DF820780028F0D110BD000096
:100C50000038014021B1828942F40052828104E0CF
:100C600082894DF6FF731A40828170470246002048
:100C7000B1F5007F00D100BF13880B400BB10120FC
:100C800000E00020704700002DE9F04786B00546DF
:100C90000E460024A24600BFA1460027B08900B13D
:100CA00000BF2F462C8A4CF6FF700440F0880443A6
:100CB0002C82AC894EF6F3100440B0883189084389
:100CC000718908430443AC81AC8A4FF6FF4004406D
:100CD000B0890443AC8201A8FFF756FD1F48874244
:100CE00002D1DDF810A001E0DDF80CA0A88900F425
:100CF000004040B10AEBCA0000EB0A10316849001D
:100D0000B0FBF1F807E00AEBCA0000EB0A1031680B
:100D10008900B0FBF1F86420B8FBF0F00401200971
:100D2000642101FB1089A88900F4004040B1322001
:100D300000EBC900B0FBF1F000F00700044308E04D
:100D4000322000EB09106421B0FBF1F000F00F003D
:100D500004432C8106B0BDE8F08700000038014054
:100D6000C1F308028280704730380A2801D201207E
:100D70007047002070470000FFF7FAFCFFF78AFC7D
:100D8000FFF710FEFFF718FF02A0FFF74DFF00BFAF
:100D9000FEE7000053797374656D205374617274BB
:100DA00065640D0A00000000040000080000000057
:100DB000000000020001000010000000DC0D00082F
:100DC000000000201800000028010008F40D0008B1
:100DD0001800002060060000440100080000000028
:100DE00000000001020304010203040607080902CF
:040DF00004060800ED
:04000005080000ED02
:00000001FF
