:020000040800F2
:100000007006002091010008990100089B0100087A
:100010009D0100089F010008A101000800000000E8
:10002000000000000000000000000000A301000824
:10003000A501000800000000A7010008A9010008B0
:10004000AB010008AB010008AB010008AB010008E0
:10005000AB010008AB010008AB010008AB010008D0
:10006000AB010008AB010008AB010008AB010008C0
:10007000AB010008AB010008AB010008AB010008B0
:10008000AB010008AB010008AB010008AB010008A0
:10009000AB010008AB010008AB010008AB01000890
:1000A000AB010008AB010008AB010008AB01000880
:1000B000AB010008AB010008AB010008AB01000870
:1000C000AB010008AB010008AB010008AB01000860
:1000D000AB010008AB010008AB010008AB01000850
:1000E000AB010008AB010008AB01000800F002F80A
:1000F00000F03FF80AA090E8000C82448344AAF183
:100100000107DA4501D100F034F8AFF2090EBAE880
:100110000F0013F0010F18BFFB1A43F0010318473B
:10012000880C0000A80C0000103A24BF78C878C1E1
:10013000FAD8520724BF30C830C144BF04680C60ED
:10014000704700000023002400250026103A28BF35
:1001500078C1FBD8520728BF30C148BF0B60704739
:10016000782900F07180002070471FB51FBD10B5C1
:1001700010BD00F0AAF91146FFF7F7FF00F088FD67
:1001800000F0C8F903B4FFF7F2FF03BC00F0D0F9A8
:100190000948804709480047FEE7FEE7FEE7FEE71B
:1001A000FEE7FEE7FEE7FEE7FEE7FEE70448054957
:1001B000054A064B70470000C90A0008ED00000818
:1001C00070000020700600207002002070020020E5
:1001D0000FB41CB5074B06AA7B44694600900598EE
:1001E00000F05BF90020694600F06AF91CBC5DF87C
:1001F00014FB0000E502000070B504468569006844
:10020000C10601D5302600E02026C00707D070BD0A
:10021000D4E9012130469047206A401C20626D1EBF
:10022000F6D570BD70B5044685690078C00707D162
:1002300070BDD4E9012120209047206A401C206233
:100240006D1EF6D570BD000070B504460D46214602
:100250001068AFF300802188090502D50F4A7A445F
:1002600002E00E4A7A440E32002104F1240305E034
:1002700000F00F060009965D5E54491C0028F7D176
:1002800020780023000704D5702D02D009B1022385
:1002900011322046BDE8704000F0A1B8760A000097
:1002A0002DE9F05F894604464FF0000ADFF824B1DB
:1002B000FB44C0F820A02046E168884700287DD094
:1002C000252806D0D4E901219047206A401C2062ED
:1002D000F1E700255F462046E1688847202806466A
:1002E00007DB312E05D2B81910F8200C08B10543F0
:1002F000F1E7A80701D525F00405C4F81CA00027E4
:10030000C4F818A02A2E09D0304600F0DEFC38B31D
:1003100004EB8708303EC8F8186019E059F8041B50
:10032000204604EB87029161E1688847012F064669
:1003300018D1E069002820DA25F020051DE0D8F862
:10034000180000EB800006EB40003038C8F81800B9
:100350002046E1688847064600F0B7FC0028EED149
:10036000012F0AD02E2E08D12046E16888477F1C35
:100370000646022F45F02005C4DBA069002803DAF9
:10038000404245F00105A061E80701D025F01005C5
:10039000A6B1A6F14100192802D8203645F400651F
:1003A0004A463146204625604D46FFF7D9FE60B1EA
:1003B000012807D0ED1D25F0070000E007E000F15F
:1003C000080978E705F1040975E730467AE7206AFD
:1003D000BDE8F09F4C0A00007047704770472DE958
:1003E000F0470D4699469246044600F124080168FC
:1003F000880604D5E06921F01001216000E00120A9
:10040000A84201DD471B00E00027A1697A1902EB31
:100410000900081AA0612078C00602D42046FFF720
:10042000EBFE002608E0D4E901211AF80600904707
:10043000206A401C761C20624E45F4DB2078C00602
:100440000AD52046FFF7D8FE06E0D4E90121302086
:100450009047206A401C2062381EA7F10107F4DC97
:1004600007E0D4E9012118F805009047206A401CF4
:100470002062281EA5F10105F3DC2046FFF7D2FE1D
:100480002078000602D50220BDE8F0870120FBE7B6
:1004900001694A1C02610878704700B58FB0CDE948
:1004A00001310021059105497944CDE90310114638
:1004B0006846FFF7F5FE0FB000BD0000E5FFFFFF47
:1004C0000A6802F8010B0A607047754600F02CF8C4
:1004D000AE4605006946534620F00700854618B031
:1004E00020B5FFF763FEBDE820404FF000064FF057
:1004F00000074FF000084FF0000BAC46ACE8C00915
:10050000ACE8C009ACE8C009ACE8C00921F00701BB
:100510008D46704710B50446AFF300802046BDE815
:100520001040FFF72FBE0000004870471000002069
:1005300001491820ABBEFEE726000200704700000C
:10054000B0B504464FF4302000F068F8042818BF16
:10055000B0BD42F21005C4F20205286840F0020066
:1005600028606C60286840F0400028604FF430201C
:1005700000F054F8296841F6FD7211402960B0BDC1
:1005800042F20C00C4F202000168C9071CBF01203E
:1005900070470168490744BF022070470068C006E1
:1005A0004FF0030058BF04207047000042F21000D3
:1005B000C4F20200016841F0800101607047000050
:1005C00070B505464FF400500C4600F027F804289B
:1005D00018BF70BD42F21006C4F20206306840F047
:1005E000010030604FF400502C8000F017F83168A3
:1005F00041F6FE721140316070BD000042F204000D
:1006000040F22311C4F20200C4F26751016048F6BF
:10061000AB11CCF6EF5101607047000010B50446F5
:10062000FFF7AEFF34B100BF012803D1FFF7A8FFE9
:10063000013CF9D1002C08BF052010BD10B50446BF
:100640006FF31000B0F1006F0FD1FFF7D7FF204616
:10065000FFF776FF0446FFF7A9FF0EA006A1042CC2
:1006600008BF084600F074FA10BD40F62550C0F6E9
:10067000000000F06DFA10BD506167652065726181
:10068000736564207375636365737366756C6C79E9
:100690000D0A00004572726F723A20506167652042
:1006A000657261736564206661696C65640D0A003A
:1006B0002DE9F0418EB004466FF31000B0F1006FE9
:1006C00007D10D46601800210138C0F602018842AA
:1006D00001D315A016E00EA000F03AFA8DB10DF18D
:1006E0000606771E0FF2340814F8012B30464146F7
:1006F00007F8012FFFF76CFD304600F029FA013DA5
:10070000F2D108A000F024FA0EB0BDE8F08100BFDD
:100710004461746120726561643A2000307825304C
:10072000325820000D0A00004572726F723A20495B
:100730006E76616C696420616464726573732072A3
:10074000616E67650D0A0000B0B504466FF3500096
:10075000B0F1006F11D10D46FFF750FF204629463A
:10076000FFF72EFF0446FFF721FF0FA006A1042C80
:1007700008BF084600F0ECF9B0BD40F64450C0F6A2
:10078000000000F0E5F9B0BD57726974652068613A
:100790006C662D776F72642073756363657373661F
:1007A000756C6C790D0A00004572726F723A2057B1
:1007B000726974652068616C662D776F726420665B
:1007C00061696C65640D0A002DE9F04105466FF31F
:1007D0001000B0F1006F09D10E46A8184FF6FF7156
:1007E0000138C0F601011446884207D940F66A5024
:1007F000C0F6000000F0ACF9BDE8F081FFF7FEFEA6
:1008000024B300270FF26408F05D791CA14203D2E3
:10081000F1194978090202E001464FF47F40014393
:10082000E81989B2FFF7CCFE042803D1002040B1BB
:100830000DE000BF404600F08BF9FFF7B7FE012046
:1008400028B90237A742DFD3022000E002200228A5
:1008500018BFBDE8F081FFF7A9FE40F68A50C0F648
:10086000000000F075F9BDE8F08100BF4572726FBD
:10087000723A205772697465204279746520666106
:10088000696C6564200D0A002DE9F041CA7802F018
:100890000F0CD30644BF8B784CEA030C09880B0677
:1008A00021D0056800234FF001084FF00F0E0026FD
:1008B00008E000BF282A08BF47610136082E03F16F
:1008C00004030FD008FA06F70F42F6D00EFA03F42D
:1008D00025EA04040CFA03F5482A45EA0405E9D19F
:1008E0000761EAE70560B1F5807F38BFBDE8F081B8
:1008F000446800234FF4807E4FF00F08002607E085
:10090000282A08BF47610136082E03F1040310D0DE
:100910000EFA06F707EA0105BD42F4D108FA03F51D
:10092000AC430CFA03F5482A44EA0504E8D1076110
:10093000E9E74460BDE8F081002941F21801C4F202
:1009400002010A680CBF22EA0000104308607047E9
:1009500080B544F204000121FFF7EEFF80BD0000E6
:1009600010B541F20404C4F20204226802F00C0241
:10097000082A41F20022C0F27A021CD12368D4F87E
:1009800000C0C3F3834E5FEACC330EF1020C06D4F1
:1009900040F60012C0F23D020CFB02F20BE02368AD
:1009A0009B0302D40CFB02F205E040F60012C0F2F9
:1009B0003D020CFB02F20260226840F61553C2F3BE
:1009C0000312C0F600039A5C0168D14041602268BE
:1009D000C2F302229A5C21FA02F282602268C2F318
:1009E000C2229A5C40F61153D140C1602268C0F621
:1009F0000003C2F381329A5CB1FBF2F1016110BDD8
:100A000080B500F001F880BD82B041F20400002101
:100A1000C4F202000191009150F8041C41F48031AD
:100A200040F8041C50F8041C01F4003100910199B5
:100A300001310191009919B90199B1F5A06FF1D176
:100A400050F8041C890354BF002101210091009932
:100A5000012936D142F20001C4F202010A6842F0D3
:100A600010020A600A6822F007020A600A6842F06F
:100A700002020A600168016001680160016841F4D6
:100A800080610160016821F47C110160016841F41A
:100A9000E811016050F8041C41F0807140F8041C1A
:100AA00050F8041C8901FBD5016821F003010160A5
:100AB000016841F002010160016801F00C010829A0
:100AC000FAD102B07047000080B541F20000C4F2D4
:100AD00002000168002241F0010101604168CFF687
:100AE000FF021140416001684FF6FF72CFF6F662D7
:100AF00011400160016821F480210160416821F406
:100B0000FE0141604FF41F018160FFF779FF4EF64F
:100B10000850CEF200004FF00061016080BD00007F
:100B2000B0B543F600040546C4F201042046802116
:100B300000F04AF80028F9D02046294600F0A4F831
:100B40002046402100F040F80028F9D0B0BD000058
:100B500010B50178002908BF10BD441EC8B2FFF7C8
:100B6000DFFFA17801340029F8D110BD8289002966
:100B700042F4005308BF22F4005383817047000001
:100B800010B586B040F2002043F60004C1F6030021
:100B9000C4F201040590A4F5405005A9FFF774FEC6
:100BA0004FF41650019000204FF400210290039161
:100BB000ADF8100001A9204600F00CF820460121F4
:100BC000FFF7D4FF06B010BD0088084018BF012011
:100BD0007047000070B586B00446008A0D46C9888B
:100BE00020F4405008432082A0894EF6F3110840BB
:100BF000A9882A896B89084310431843A081A08AD9
:100C0000A98920F44070084301AEA0823046FFF766
:100C1000A7FE43F6000106F10800C4F201018C4270
:100C200008BF06F10C0000681922B4F90C105043FB
:100C30002A680223002948BF012302FA03F1B0FB0E
:100C4000F1F048F21F51C5F2EB11A0FB01235A0944
:100C50006FF0630302FB0300B4F90C300426002B91
:100C600048BF032600FA06F000F13200A0FB0101A4
:100C70004FF00F0048BF072000EA511040EA021071
:100C8000208106B070BD00006FF35F218180704746
:100C9000FFF75EFEFFF774FF0024C0F60104204654
:100CA000FFF7CCFC40F20001C2F2000120460E2208
:100CB000FFF78AFD20460C21FFF7FAFC04F1200023
:100CC0004AF6AA21FFF740FDFEE730380A2801D294
:100CD00001207047002070473031323334353637C9
:100CE0003839414243444546403058003031323370
:100CF0003435363738396162636465664030780070
:100D000004000008000000000000000200010000D4
:100D1000100204060800000000010203040102039F
:100D200004060708094572726F723A20496E7661AF
:100D30006C696420706167652061646472657373B7
:100D4000210D0A004572726F723A20496E76616C0D
:100D500069642061646472657320666F72206861E3
:100D60006C662D776F72640D0A004572726F723A6D
:100D700020496E76616C6964206164647265737386
:100D8000732072616E67650D0A0057726974652081
:100D90006279746573207375636365737366756CCC
:100DA0006C790D0A00000000C80D0008000000204A
:100DB0001000000028010008D80D000810000020D5
:100DC000600600004401000805020301040906054D
:080DD0000A140B1719130000AF
:04000005080000ED02
:00000001FF
