:020000040800F2
:10000000600600206D0100087501000877010008F6
:10001000790100087B0100087D0100080000000054
:100020000000000000000000000000007F01000848
:10003000810100080000000083010008850100081C
:100040008701000887010008870100088701000870
:100050008701000887010008870100088701000860
:100060008701000887010008870100088701000850
:100070008701000887010008870100088701000840
:100080008701000887010008870100088701000830
:100090008701000887010008870100088701000820
:1000A0008701000887010008870100088701000810
:1000B0008701000887010008870100088701000800
:1000C00087010008870100088701000887010008F0
:1000D00087010008870100088701000887010008E0
:1000E00087010008870100088701000800F002F876
:1000F00000F02CF80AA090E8000C82448344AAF196
:100100000107DA4501D100F021F8AFF2090EBAE893
:100110000F0013F0010F18BFFB1A43F0010318473B
:100120005C0500006C05000000230024002500266B
:10013000103A28BF78C1FBD8520728BF30C148BF4A
:100140000B6070471FB51FBD10B510BD00F031F832
:100150001146FFF7F7FF00F077FA00F04FF803B40D
:10016000FFF7F2FF03BC00F057F800000948804792
:1001700009480047FEE7FEE7FEE7FEE7FEE7FEE789
:10018000FEE7FEE7FEE7FEE704480549054A064BA1
:100190007047000099040008ED000008600000208E
:1001A0006006002060020020600200207047704757
:1001B0007047754600F02CF8AE4605006946534678
:1001C00020F00700854618B020B5FFF7DDFFBDE839
:1001D00020404FF000064FF000074FF000084FF0AE
:1001E000000BAC46ACE8C009ACE8C009ACE8C009FB
:1001F000ACE8C00921F007018D46704710B50446F0
:10020000AFF300802046BDE81040FFF7A8BF000014
:10021000004870470000002001491820ABBEFEE7EF
:100220002600020070470000B0B582B044F205001D
:10023000012100F071F840F2002040F60004C1F600
:100240000300C4F2010401AD01902046294600F0EC
:100250000BF840F20040C0F20340019020462946CE
:1002600000F002F802B0B0BD2DE9F041CA7802F00A
:100270000F0CD30644BF8B784CEA030C09880B069D
:1002800021D0056800234FF001084FF00F0E002623
:1002900008E000BF282A08BF47610136082E03F195
:1002A00004030FD008FA06F70F42F6D00EFA03F453
:1002B00025EA04040CFA03F5482A45EA0405E9D1C5
:1002C0000761EAE70560B1F5807F38BFBDE8F081DE
:1002D000446800234FF4807E4FF00F08002607E0AB
:1002E000282A08BF47610136082E03F1040310D005
:1002F0000EFA06F707EA0105BD42F4D108FA03F544
:10030000AC430CFA03F5482A44EA0504E8D1076136
:10031000E9E74460BDE8F081002941F21801C4F228
:1003200002010A680CBF22EA00001043086070470F
:1003300010B541F20404C4F20204226802F00C0277
:10034000082A41F20022C0F27A021CD12368D4F8B4
:1003500000C0C3F3834E5FEACC330EF1020C06D427
:1003600040F60012C0F23D020CFB02F20BE02368E3
:100370009B0302D40CFB02F205E040F60012C0F22F
:100380003D020CFB02F20260226840F26C63C2F391
:100390000312C0F600039A5C0168D14041602268F4
:1003A000C2F302229A5C21FA02F282602268C2F34E
:1003B000C2229A5C40F26863D140C1602268C0F6F4
:1003C0000003C2F381329A5CB1FBF2F1016110BD0E
:1003D00080B500F001F880BD82B041F20400002138
:1003E000C4F202000191009150F8041C41F48031E4
:1003F00040F8041C50F8041C01F4003100910199EC
:1004000001310191009919B90199B1F5A06FF1D1AC
:1004100050F8041C890354BF002101210091009968
:10042000012936D142F20001C4F202010A6842F009
:1004300010020A600A6822F007020A600A6842F0A5
:1004400002020A600168016001680160016841F40C
:1004500080610160016821F47C110160016841F450
:10046000E811016050F8041C41F0807140F8041C50
:1004700050F8041C8901FBD5016821F003010160DB
:10048000016841F002010160016801F00C010829D6
:10049000FAD102B07047000080B541F20000C4F20A
:1004A00002000168002241F0010101604168CFF6BD
:1004B000FF021140416001684FF6FF72CFF6F6620D
:1004C00011400160016821F480210160416821F43C
:1004D000FE0141604FF41F018160FFF779FF4EF686
:1004E0000850CEF200004FF00061016080BD0000B6
:1004F0008289002942F4005308BF22F4005383810B
:100500007047000010B584B04FF4165043F6000455
:10051000009000200C21C4F20104ADF80400CDF8D5
:100520000A10CDF806006946204600F00DF8204676
:100530000121FFF7DDFF04B010BD00000088084076
:1005400018BF01207047000070B586B00446008ACD
:100550000D46C98820F4405008432082A0894EF6F9
:10056000F3110840A9882A896B890843104318436E
:10057000A081A08AA98920F44070084301AEA0821E
:100580003046FFF7D5FE43F6000106F10800C4F23D
:1005900001018C4208BF06F10C0000681922B4F971
:1005A0000C1050432A680223002948BF012302FA95
:1005B00003F1B0FBF1F048F21F51C5F2EB11A0FBC3
:1005C00001235A096FF0630302FB0300B4F90C30F6
:1005D0000426002B48BF032600FA06F000F1320083
:1005E000A0FB01014FF00F0048BF072000EA5110A7
:1005F00040EA0210208106B070BD000010B504462C
:1006000020462021FFF79AFF0028F9D0204600F06D
:1006100003F8C0B210BD000080886FF35F20704700
:10062000B0B50C46054600BF28468021FFF786FF7F
:100630000028F9D02846214600F002F8B0BD00009D
:100640006FF35F218180704743F60004C4F2010418
:10065000FFF7EAFDFFF756FF2046FFF7CFFF014601
:100660002046FFF7DDFFF7E7020406080000000060
:100670000102030401020304060708098C060008AE
:0C068000000000206006000028010008B7
:04000005080000ED02
:00000001FF
