:020000040800F2
:10000000600600206D0100087501000877010008F6
:10001000790100087B0100087D0100080000000054
:100020000000000000000000000000007F01000848
:10003000810100080000000083010008850100081C
:100040008701000887010008870100088701000870
:100050008701000887010008870100088701000860
:100060008701000887010008870100088701000850
:100070008701000887010008870100088701000840
:100080008701000887010008870100088701000830
:100090008701000887010008870100088701000820
:1000A0008701000887010008870100088701000810
:1000B0008701000887010008870100088701000800
:1000C00087010008870100088701000887010008F0
:1000D00087010008870100088701000887010008E0
:1000E00087010008870100088701000800F002F876
:1000F00000F02CF80AA090E8000C82448344AAF196
:100100000107DA4501D100F021F8AFF2090EBAE893
:100110000F0013F0010F18BFFB1A43F0010318473B
:10012000F804000008050000002300240025002634
:10013000103A28BF78C1FBD8520728BF30C148BF4A
:100140000B6070471FB51FBD10B510BD00F031F832
:100150001146FFF7F7FF00F057FA00F04FF803B42D
:10016000FFF7F2FF03BC00F057F800000948804792
:1001700009480047FEE7FEE7FEE7FEE7FEE7FEE789
:10018000FEE7FEE7FEE7FEE704480549054A064BA1
:100190007047000005040008ED0000086000002022
:1001A0006006002060020020600200207047704757
:1001B0007047754600F02CF8AE4605006946534678
:1001C00020F00700854618B020B5FFF7DDFFBDE839
:1001D00020404FF000064FF000074FF000084FF0AE
:1001E000000BAC46ACE8C009ACE8C009ACE8C009FB
:1001F000ACE8C00921F007018D46704710B50446F0
:10020000AFF300802046BDE81040FFF7A8BF000014
:10021000004870470000002001491820ABBEFEE7EF
:10022000260002007047000080B582B04020C1F671
:100230000300019040F60000C4F2010001A900F0A3
:1002400003F802B080BD00002DE9F041CA7802F049
:100250000F0CD30644BF8B784CEA030C09880B06BD
:1002600021D0056800234FF001084FF00F0E002643
:1002700008E000BF282A08BF47610136082E03F1B5
:1002800004030FD008FA06F70F42F6D00EFA03F473
:1002900025EA04040CFA03F5482A45EA0405E9D1E5
:1002A0000761EAE70560B1F5807F38BFBDE8F081FE
:1002B000446800234FF4807E4FF00F08002607E0CB
:1002C000282A08BF47610136082E03F1040310D025
:1002D0000EFA06F707EA0105BD42F4D108FA03F564
:1002E000AC430CFA03F5482A44EA0504E8D1076157
:1002F000E9E74460BDE8F081002941F21C01C4F245
:1003000002010A680CBF22EA00001043086070472F
:10031000002941F21801C4F202010A680CBF22EA66
:10032000000010430860704780B502200121FFF7EC
:10033000E3FF04200121FFF7EBFF80BD80B500F053
:1003400001F880BD82B041F204000021C4F2020035
:100350000191009150F8041C41F4803140F8041CD4
:1003600050F8041C01F40031009101990131019110
:10037000009919B90199B1F5A06FF1D150F8041C99
:10038000890354BF0021012100910099012936D130
:1003900042F20001C4F202010A6842F010020A604F
:1003A0000A6822F007020A600A6842F002020A6044
:1003B0000168016001680160016841F480610160C9
:1003C000016821F47C110160016841F4E8110160C9
:1003D00050F8041C41F0807140F8041C50F8041CD3
:1003E0008901FBD5016821F003010160016841F03A
:1003F00002010160016801F00C010829FAD102B084
:100400007047000080B541F20000C4F202000168AC
:10041000002241F0010101604168CFF6FF02114066
:10042000416001684FF6FF72CFF6F662114001603D
:10043000016821F480210160416821F4FE014160DE
:100440004FF41F018160FFF779FF4EF60850CEF29E
:1004500000004FF00061016080BD000002880029AB
:1004600042F0800308BF22F0800303807047000041
:100470000288002942F0010308BF22F00103038033
:100480007047000010B5028C22F001020284048C37
:10049000B0F804E0038B0A8823F0730343EA020CEC
:1004A0000A8924F002031A43A0F180434C88A3F583
:1004B00096334FEAB323072B42EA040215D80124EE
:1004C00004FA03F313F0E50F0FD04B8922F00C026E
:1004D00023F004038C881A4322438C892EF4407E37
:1004E000CB8944EA0E0444EA030EA0F804E0A0F825
:1004F00018C0C9888186028410BD0000028B22F0DA
:10050000080211430183704710B588B0472040F2BC
:100510000044059040F2E730C4F20004069005A9BB
:10052000204600F01BF86020C0F2010001904FF45B
:10053000FA70CDF80A0001A92046FFF7A3FF204674
:100540000821FFF7DBFF20460121FFF787FF204648
:100550000121FFF78DFF08B010BD000040F6FF330A
:10056000B0F800C0C4F2000398420FDCB0F1804F35
:100570001ED040F20043C4F20003984218D040F667
:100580000003C4F20003984212D016E040F6004384
:10059000C4F2000398420BD043F20043C4F20103BB
:1005A000984205D042F60043C4F20103984204D1B8
:1005B0004B882CF0700243EA020C41F2004240F4F6
:1005C0008063C4F20002934204D0CA882CF44073C2
:1005D00042EA030CA0F800C08A888285A0F180421C
:1005E000A2F596320B884FEAB222072A038507D874
:1005F000012303FA02F212F0E50F1CBF097A01860B
:100600000121818270470000FFF78EFEFFF70CFE8C
:10061000FFF77AFFFEE70000280600080000002030
:0806200060060000280100083B
:04000005080000ED02
:00000001FF
