:020000040800F2
:10000000600600206D0100087501000877010008F6
:10001000790100087B0100087D0100080000000054
:100020000000000000000000000000007F01000848
:10003000810100080000000083010008850100081C
:100040008701000887010008870100088701000870
:100050008701000887010008870100088701000860
:100060008701000887010008870100088701000850
:100070008701000887010008870100088701000840
:100080008701000887010008870100088701000830
:100090008701000887010008870100088701000820
:1000A0008701000887010008870100088701000810
:1000B0008701000887010008870100088701000800
:1000C00087010008870100088701000887010008F0
:1000D00087010008870100088701000887010008E0
:1000E00087010008870100088701000800F002F876
:1000F00000F02CF80AA090E8000C82448344AAF196
:100100000107DA4501D100F021F8AFF2090EBAE893
:100110000F0013F0010F18BFFB1A43F0010318473B
:10012000740300008403000000230024002500263F
:10013000103A28BF78C1FBD8520728BF30C148BF4A
:100140000B6070471FB51FBD10B510BD00F031F832
:100150001146FFF7F7FF00F095F900F04FF803B4F0
:10016000FFF7F2FF03BC00F057F800000948804792
:1001700009480047FEE7FEE7FEE7FEE7FEE7FEE789
:10018000FEE7FEE7FEE7FEE704480549054A064BA1
:1001900070470000E9030008ED000008600000203F
:1001A0006006002060020020600200207047704757
:1001B0007047754600F02CF8AE4605006946534678
:1001C00020F00700854618B020B5FFF7DDFFBDE839
:1001D00020404FF000064FF000074FF000084FF0AE
:1001E000000BAC46ACE8C009ACE8C009ACE8C009FB
:1001F000ACE8C00921F007018D46704710B50446F0
:10020000AFF300802046BDE81040FFF7A8BF000014
:10021000004870470000002001491820ABBEFEE7EF
:10022000260002007047000080B582B040F2E01066
:10023000C1F20300019041F20000C4F2010001A9E3
:1002400000F002F802B080BD2DE9F041CA7802F05A
:100250000F0CD30644BF8B784CEA030C09880B06BD
:1002600021D0056800234FF001084FF00F0E002643
:1002700008E000BF282A08BF47610136082E03F1B5
:1002800004030FD008FA06F70F42F6D00EFA03F473
:1002900025EA04040CFA03F5482A45EA0405E9D1E5
:1002A0000761EAE70560B1F5807F38BFBDE8F081FE
:1002B000446800234FF4807E4FF00F08002607E0CB
:1002C000282A08BF47610136082E03F1040310D025
:1002D0000EFA06F707EA0105BD42F4D108FA03F564
:1002E000AC430CFA03F5482A44EA0504E8D1076157
:1002F000E9E74460BDE8F081C1607047002941F240
:100300001801C4F202010A680CBF22EA000010437F
:100310000860704780B510200121FFF7EFFF80BD16
:1003200080B500F001F880BD82B041F204000021E8
:10033000C4F202000191009150F8041C41F4803194
:1003400040F8041C50F8041C01F40031009101999C
:1003500001310191009919B90199B1F5A06FF1D15D
:1003600050F8041C890354BF002101210091009919
:10037000012936D142F20001C4F202010A6842F0BA
:1003800010020A600A6822F007020A600A6842F056
:1003900002020A600168016001680160016841F4BD
:1003A00080610160016821F47C110160016841F401
:1003B000E811016050F8041C41F0807140F8041C01
:1003C00050F8041C8901FBD5016821F0030101608C
:1003D000016841F002010160016801F00C01082987
:1003E000FAD102B07047000080B541F20000C4F2BB
:1003F00002000168002241F0010101604168CFF66E
:10040000FF021140416001684FF6FF72CFF6F662BD
:1004100011400160016821F480210160416821F4EC
:10042000FE0141604FF41F018160FFF779FF4EF636
:100430000850CEF200004FF00061016080BD000066
:100440002DE9F041002808BFBDE8F08141F2000528
:10045000804610260027C4F2010500BF042400BF17
:10046000B1B22846FFF748FF7600B0B2B0F5807F02
:1004700088BF1026013CF3D101374745EED1BDE8D6
:10048000F0810000FFF746FFFFF7CEFE0320FFF7E5
:10049000D7FFFBE7A404000800000020600600006E
:0404A0002801000827
:04000005080000ED02
:00000001FF
