:020000040800F2
:10000000680600208901000891010008930100089A
:100010009501000897010008990100080000000000
:100020000000000000000000000000009B0100082C
:100030009D010008000000009F010008A1010008C8
:10004000A3010008A3010008A3010008A301000800
:10005000A3010008A3010008A3010008A3010008F0
:10006000A3010008A3010008A3010008A3010008E0
:10007000A3010008A3010008A3010008A3010008D0
:10008000A3010008A3010008A3010008A3010008C0
:10009000A3010008A3010008A3010008A3010008B0
:1000A000A3010008A3010008A3010008A3010008A0
:1000B000A3010008A3010008A3010008A301000890
:1000C000A3010008A3010008A3010008A301000880
:1000D000A3010008A3010008A3010008A301000870
:1000E000A3010008A3010008A301000800F002F822
:1000F00000F03AF80AA090E8000C82448344AAF188
:100100000107DA4501D100F02FF8AFF2090EBAE885
:100110000F0013F0010F18BFFB1A43F0010318473B
:100120004006000060060000103A24BF78C878C17D
:10013000FAD8520724BF30C830C144BF04680C60ED
:10014000704700000023002400250026103A28BF35
:1001500078C1FBD8520728BF30C148BF0B60704739
:100160001FB51FBD10B510BD00F031F81146FFF7E7
:10017000F7FF00F0A3FA00F04FF803B4FFF7F2FF27
:1001800003BC00F057F800000948804709480047C1
:10019000FEE7FEE7FEE7FEE7FEE7FEE7FEE7FEE737
:1001A000FEE7FEE704480549054A064B7047000094
:1001B00015050008ED000008680000206806002012
:1001C000680200206802002070477047704775463B
:1001D00000F02CF8AE4605006946534620F00700B3
:1001E000854618B020B5FFF7DDFFBDE820404FF091
:1001F00000064FF000074FF000084FF0000B21F011
:100200000701AC46ACE8C009ACE8C009ACE8C009DD
:10021000ACE8C0098D46704710B50446AFF30080C6
:100220002046BDE81040FFF7A8BF00000048704717
:100230000400002001491820ABBEFEE726000200A2
:1002400070470CB5002101910CE00021009102E003
:100250000099491C00910099B1F5E15FF8D301992B
:10026000491C019101998142EFD30CBD08B54FF4AF
:100270008070ADF8000018208DF8030003208DF881
:1002800002006946084800F013F80320ADF80000AA
:1002900048208DF8030003208DF8020069460348CA
:1002A00000F006F808BD0000000C01400008014005
:1002B0002DE9F041024600250026002000230024FD
:1002C000002791F803C00CF00F0591F803C00CF063
:1002D000100CBCF1000F03D091F802C04CEA0505E8
:1002E00091F800C0BCF1000F31D0146800202BE061
:1002F0004FF0010C0CFA00F3B1F800C00CEA030651
:100300009E4220D183004FF00F0C0CFA03F7BC4340
:1003100005FA03FC4CEA040491F803C0BCF1280F71
:1003200006D14FF0010C0CFA00FCC2F814C00AE030
:1003300091F803C0BCF1480F05D14FF0010C0CFA45
:1003400000FCC2F810C0401C0828D1D31460B1F8DA
:1003500000C0BCF1FF0F34DD546800202EE000F136
:10036000080C4FF0010808FA0CF3B1F800C00CEAD1
:1003700003069E4221D183004FF00F0C0CFA03F7C5
:10038000BC4305FA03FC4CEA040491F803C0BCF139
:10039000280F05D100F1080C08FA0CF8C2F81480F7
:1003A00091F803C0BCF1480F07D100F1080C4FF0E1
:1003B000010808FA0CF8C2F81080401C0828CED3B7
:1003C0005460BDE8F0810246002093680B400BB1F9
:1003D000012000E00020704729B1064AD26902439B
:1003E000044BDA6104E0034AD2698243014BDA61CB
:1003F000704700000010024029B1064A926902438A
:10040000044B9A6104E0034A92698243014B9A616A
:10041000704700000010024010B501210C20FFF7CA
:10042000EBFF01210220FFF7D7FF10BD10B500F050
:1004300001F810BD0CB50020019000903348006811
:1004400040F480303149086000BF3048006800F453
:10045000003000900198401C0190009818B9019854
:10046000B0F5A06FF1D12948006800F4003010B158
:100470000120009001E0002000900098012843D165
:100480002348006840F010002149086008460068D1
:1004900020F0070008600846006840F0020008608D
:1004A0001A4840681949486008464068486008464C
:1004B000406840F4806048600846406820F47C1042
:1004C00048600846406840F4E81048600846006804
:1004D00040F08070086000BF0C48006800F00070B9
:1004E0000028F9D00948406820F003000749486017
:1004F0000846406840F00200486000BF034840687A
:1005000000F00C000828F9D10CBD000000100240DA
:100510000020024010B51348006840F00100114966
:10052000086008464068104908400E49486008467F
:1005300000680E4908400B4908600846006820F42E
:10054000802008600846406820F4FE0048604FF4B0
:100550001F008860FFF76AFF4FF0006004490860E1
:1005600010BD0000001002400000FFF8FFFFF6FE83
:1005700008ED00E000B587B00020ADF81600ADF83A
:10058000120040F2CF20ADF810006320ADF8140047
:1005900004A90E4800F040F86020ADF800000120EA
:1005A000ADF802000020ADF80600ADF80800082103
:1005B000064800F025F80121044800F009F801215F
:1005C000024800F011F807B000BD00000004004030
:1005D00021B1028842F08002028004E002884FF6D6
:1005E0007F731A400280704721B1028842F00102F5
:1005F000028004E002884FF6FE731A4002807047C2
:100600000A460021018B4FF6F7731940114301830D
:100610007047818670470000002202881D4B984277
:100620000ED01D4B98420BD0B0F1804F08D01B4B21
:10063000984205D01A4B984202D01A4B984204D1E6
:100640004FF68F731A404B881A43174B984207D0C6
:10065000164B984204D04FF6FF431A40CB881A43FA
:1006600002808B8883850B8803850A4B98420BD0C8
:10067000094B984208D00E4B984205D00D4B98423A
:1006800002D00D4B984201D10B7A0386012383825D
:1006900070470000002C014000340140000400407D
:1006A00000080040000C0040001000400014004012
:1006B000004001400044014000480140FFF7ACFE0B
:1006C000FFF7D4FDFFF756FF42E001212148FFF775
:1006D0007AFEE0B93220FFF7B4FD01211D48FFF793
:1006E00072FEA0B91C480078642809DA1A4800781C
:1006F0000A3019490870084601781848FFF789FF41
:1007000000BF01211348FFF75EFE0028F9D0022147
:100710001048FFF758FED8B93220FFF792FD0221AA
:100720000C48FFF750FE98B90B480078002808DD08
:10073000094800780A380849087001210748FFF77E
:1007400068FF00BF02210348FFF73DFE0028F9D0F3
:10075000BBE70000000C0140000000200004004046
:1007600080070008000000200400000028010008A5
:10077000840700080400002064060000440100080B
:040780000000000075
:04000005080000ED02
:00000001FF
