:020000040800F2
:10000000680600206D0100087501000877010008EE
:10001000790100087B0100087D0100080000000054
:100020000000000000000000000000007F01000848
:10003000810100080000000083010008850100081C
:100040008701000887010008870100088701000870
:100050008701000887010008870100088701000860
:100060008701000887010008870100088701000850
:100070008701000887010008870100088701000840
:100080008701000887010008870100088701000830
:100090008701000887010008870100088701000820
:1000A0008701000887010008870100088701000810
:1000B0008701000887010008870100088701000800
:1000C00087010008870100088701000887010008F0
:1000D00087010008870100088701000887010008E0
:1000E00087010008870100088701000800F002F876
:1000F00000F02CF80AA090E8000C82448344AAF196
:100100000107DA4501D100F021F8AFF2090EBAE893
:100110000F0013F0010F18BFFB1A43F0010318473B
:1001200018070000280700000023002400250026EF
:10013000103A28BF78C1FBD8520728BF30C148BF4A
:100140000B6070471FB51FBD10B510BD00F031F832
:100150001146FFF7F7FF00F051FB00F04FF803B432
:10016000FFF7F2FF03BC00F057F800000948804792
:1001700009480047FEE7FEE7FEE7FEE7FEE7FEE789
:10018000FEE7FEE7FEE7FEE704480549054A064BA1
:100190007047000011060008ED000008680000200C
:1001A000680600206802002068020020704770473F
:1001B0007047754600F02CF8AE4605006946534678
:1001C00020F00700854618B020B5FFF7DDFFBDE839
:1001D00020404FF000064FF000074FF000084FF0AE
:1001E000000BAC46ACE8C009ACE8C009ACE8C009FB
:1001F000ACE8C00921F007018D46704710B50446F0
:10020000AFF300802046BDE81040FFF7A8BF000014
:10021000004870470000002001491820ABBEFEE7EF
:1002200026000200704700000422010FC4F20202FF
:1002300061F38A221060704702684FF6FE7C42F03C
:100240000103002908BF02EA0C03036070470000A5
:1002500010B58CB03221049140F26001C2F200016D
:10026000098820200291802109900020069143F204
:100270000C011C2403900B900890C4F2010107901C
:1002800005904FF40050C4F2020401910A9001A9B4
:10029000204600F013F820460121FFF7CDFF0CB0F7
:1002A00010BD00000022010FC4F2020261F38A2295
:1002B0001168084018BF0120704700002DE9F04781
:1002C000026847F6F073D1E9026A9A4301F1100718
:1002D000B0CF01F11C0E3243D1E900899EE80A50EB
:1002E0001A4322432A433A43114341EA0C0141EAAB
:1002F0000E010160C0F804A0C0F80880C0F80C909E
:10030000BDE8F087B0B582B0012040F60004C1F628
:100310000300C4F2010401AD01902046294600F01B
:1003200013F8B020C0F2034001902046294600F0A7
:100330000BF84020C1F6030001902046294600F04A
:1003400003F802B0B0BD00002DE9F041CA7802F018
:100350000F0CD30644BF8B784CEA030C09880B06BC
:1003600021D0056800234FF001084FF00F0E002642
:1003700008E000BF282A08BF47610136082E03F1B4
:1003800004030FD008FA06F70F42F6D00EFA03F472
:1003900025EA04040CFA03F5482A45EA0405E9D1E4
:1003A0000761EAE70560B1F5807F38BFBDE8F081FD
:1003B000446800234FF4807E4FF00F08002607E0CA
:1003C000282A08BF47610136082E03F1040310D024
:1003D0000EFA06F707EA0105BD42F4D108FA03F563
:1003E000AC430CFA03F5482A44EA0504E8D1076156
:1003F000E9E74460BDE8F081002941F21401C4F24C
:1004000002010A680CBF22EA00001043086070472E
:10041000002941F21C01C4F202010A680CBF22EA61
:100420000000104308607047002941F21801C4F22F
:1004300002010A680CBF22EA0000104308607047FE
:1004400080B541F204000121FFF7EEFF01200121F8
:10045000FFF7DEFF01200121FFF7CEFF80BD000086
:100460000288002942F0400308BF22F040030380C5
:100470007047000010B586B00020CDF80600ADF83A
:100480000400CDF80A004FF4E020CDF8120040F24D
:10049000002043F20004C0F21800C4F20104CDF8B9
:1004A0000E0001A9204600F013F820460121FFF7B5
:1004B000D7FF20460121012200F002F806B010BD4E
:1004C000002A82880CBF22EA010111438180704713
:1004D0002DE9F04102880B8802F4415C4A88B1F8AA
:1004E00004E043EA0C03CC881A430D8942EA0E0269
:1004F0004E8922438F892A43B1F80E8032433A4312
:1005000042EA08020280828B22F400628283098A16
:100510000182BDE8F081000080B5B42828BFB42076
:100520004FF47A71484346F617418008C1F2C16121
:10053000A0FB01016FF0170000EB9100C1B24FF07A
:10054000804000F003F980BD80B500F001F880BD67
:1005500082B041F204000021C4F202000191009136
:1005600050F8041C41F4803140F8041C50F8041C7D
:1005700001F400310091019901310191009919B9FB
:100580000199B1F5A06FF1D150F8041C890354BF53
:100590000021012100910099012936D142F2000188
:1005A000C4F202010A6842F010020A600A6822F0EE
:1005B00007020A600A6842F002020A6001680160EC
:1005C00001680160016841F480610160016821F403
:1005D0007C110160016841F4E811016050F8041CCD
:1005E00041F0807140F8041C50F8041C8901FBD5CF
:1005F000016821F003010160016841F0020101601E
:10060000016801F00C010829FAD102B0704700001E
:1006100080B541F20000C4F202000168002241F0FE
:10062000010101604168CFF6FF021140416001689D
:100630004FF6FF72CFF6F66211400160016821F4B7
:1006400080210160416821F4FE0141604FF41F01E7
:100650008160FFF779FF4EF60850CEF200004FF0B0
:100660000061016080BD00000288002942F00103A2
:1006700008BF22F0010303807047000080B588B0F6
:100680004720059044F61F60069005A94FF0804072
:1006900000F05EF86020C0F2010001904FF6FF709C
:1006A000CDF80A0001A94FF0804000F00DF84FF09E
:1006B0008040082100F044F84FF080400121FFF70E
:1006C000D3FF08B080BD000010B5028C22F00102FB
:1006D0000284048CB0F804E0038B0A8823F07303CF
:1006E00043EA020C0A8924F002031A43A0F1804372
:1006F0004C88A3F596334FEAB323072B42EA040252
:1007000015D8012404FA03F313F0E50F0FD04B8939
:1007100022F00C0223F004038C881A4322438C89B4
:100720002EF4407ECB8944EA0E0444EA030EA0F87E
:1007300004E0A0F818C0C9888186028410BD0000BA
:10074000028B22F0080211430183704781867047B3
:1007500040F6FF33B0F800C0C4F2000398420FDC4B
:10076000B0F1804F1ED040F20043C4F20003984223
:1007700018D040F60003C4F20003984212D016E0ED
:1007800040F60043C4F2000398420BD043F200430A
:10079000C4F20103984205D042F60043C4F20103BB
:1007A000984204D14B882CF0700243EA020C41F2CB
:1007B000004240F48063C4F20002934204D0CA882D
:1007C0002CF4407342EA030CA0F800C08A888285AA
:1007D000A0F18042A2F596320B884FEAB222072A96
:1007E000038507D8012303FA02F212F0E50F1CBFBC
:1007F000097A01860121818270470000FFF720FEFF
:10080000FFF780FDFFF73AFFFFF722FDFFF732FE0B
:1008100040F26004C2F20004B42500BF2020FFF7BC
:1008200041FD0028FAD02020FFF7FEFC2088684315
:10083000000BFFF771FEF1E74808000800000020F8
:08084000680600002801000811
:04000005080000ED02
:00000001FF
