:020000040800F2
:10000000800600206D0100087501000877010008D6
:10001000790100087B0100087D0100080000000054
:100020000000000000000000000000007F01000848
:10003000810100080000000083010008850100081C
:100040008701000887010008870100088701000870
:100050008701000887010008870100088701000860
:100060008701000887010008870100088701000850
:100070008701000887010008870100088701000840
:100080008701000887010008870100088701000830
:100090008701000887010008870100088701000820
:1000A0008701000887010008870100088701000810
:1000B0008701000887010008870100088701000800
:1000C00087010008870100088701000887010008F0
:1000D00087010008870100088701000887010008E0
:1000E00087010008870100088701000800F002F876
:1000F00000F02CF80AA090E8000C82448344AAF196
:100100000107DA4501D100F021F8AFF2090EBAE893
:100110000F0013F0010F18BFFB1A43F0010318473B
:1001200018130000281300000023002400250026D7
:10013000103A28BF78C1FBD8520728BF30C148BF4A
:100140000B6070471FB51FBD10B510BD00F031F832
:100150001146FFF7F7FF00F047FB00F04FF803B43C
:10016000FFF7F2FF03BC00F057F800000948804792
:1001700009480047FEE7FEE7FEE7FEE7FEE7FEE789
:10018000FEE7FEE7FEE7FEE704480549054A064BA1
:1001900070470000A1060008ED0000088000002064
:1001A00080060020800200208002002070477047F7
:1001B0007047754600F02CF8AE4605006946534678
:1001C00020F00700854618B020B5FFF7DDFFBDE839
:1001D00020404FF000064FF000074FF000084FF0AE
:1001E000000BAC46ACE8C009ACE8C009ACE8C009FB
:1001F000ACE8C00921F007018D46704710B50446F0
:10020000AFF300802046BDE81040FFF7A8BF000014
:10021000004870470000002001491820ABBEFEE7EF
:1002200026000200704700008268002942F00103A6
:1002300008BF22F0010383607047000010B586B04C
:100240000020019004904FF4807042F2004401219C
:10025000ADF808004FF46020C4F201048DF81410CA
:10026000039001A9204600F015F820460021012244
:10027000032300F039F820460121FFF7D5FF20467F
:10028000012100F063F806B010BD0000C06C80B220
:100290007047000080B542684FF6FF63CFF6F073F9
:1002A00002EA030C0B680A7943EA0C0343EA0222D0
:1002B000426082684FF2FD73CFF6F17302EA030CDD
:1002C000D1E902E24B7942EA0C0242EA0E0242EA2A
:1002D00043028260C26A097C22F470020139C9B209
:1002E00042EA0151C16280BDB0B501EB410C4FF053
:1002F000100E092988BFACF11E0C88BF4FF00C0E00
:1003000050F80E40072505FA0CF5AC4303FA0CF340
:100310002343062A40F80E3003D834306FF004032C
:1003200007E00C2A87BF2C306FF0400330306FF0AD
:10033000220302EB820205681A441F23934025EA38
:100340000303914019430160B0BD00008268002999
:1003500042F4A00308BF22F4A003836070470000AA
:1003600010B504464FF08040002100F0E5F904EBA1
:10037000840044004FF0804000F0DCF98442F9D85A
:1003800010BD0000B0B582B0012040F60004C0F2FC
:100390000300C4F2010401AD01902046294600F09B
:1003A00013F84020C4F6030001902046294600F0CF
:1003B0000BF8B020C1F2030001902046294600F05E
:1003C00003F802B0B0BD00002DE9F041CA7802F098
:1003D0000F0CD30644BF8B784CEA030C09880B063C
:1003E00021D0056800234FF001084FF00F0E0026C2
:1003F00008E000BF282A08BF47610136082E03F134
:1004000004030FD008FA06F70F42F6D00EFA03F4F1
:1004100025EA04040CFA03F5482A45EA0405E9D163
:100420000761EAE70560B1F5807F38BFBDE8F0817C
:10043000446800234FF4807E4FF00F08002607E049
:10044000282A08BF47610136082E03F1040310D0A3
:100450000EFA06F707EA0105BD42F4D108FA03F5E2
:10046000AC430CFA03F5482A44EA0504E8D10761D5
:10047000E9E74460BDE8F081416170470161704780
:10048000002941F21C01C4F202010A680CBF22EAF1
:100490000000104308607047002941F21801C4F2BF
:1004A00002010A680CBF22EA00001043086070478E
:1004B00080B541F204200121FFF7EEFF0120012168
:1004C000FFF7DEFF80BD00000288002942F04003F4
:1004D00008BF22F0400303807047000010B586B0CB
:1004E0001820ADF810004FF08270019000200290AB
:1004F0004FF0007043F2000403904FF4E020C4F288
:100500000104CDF8120001A9204600F00FF82046A2
:100510000121FFF7D9FF06B010BD00000089084097
:1005200018BF012070470000818170472DE9F0411C
:1005300002880B8802F4415C4A88B1F804E043EA7F
:100540000C03CC881A430D8942EA0E024E892243DD
:100550008F892A43B1F80E8032433A4342EA0802B7
:100560000280828B22F400628283098A0182BDE8C4
:10057000F081000070B543F20005C4F20105A5F555
:100580002054064620461021FFF776FF2846022118
:10059000FFF7C4FF0028F9D028463146FFF7C4FF13
:1005A00028468021FFF7BAFF0128F9D02046102104
:1005B000FFF764FF70BD000080B500F001F880BD5A
:1005C00082B041F204000021C4F2020001910091C6
:1005D00050F8041C41F4803140F8041C50F8041C0D
:1005E00001F400310091019901310191009919B98B
:1005F0000199B1F5A06FF1D150F8041C890354BFE3
:100600000021012100910099012936D142F2000117
:10061000C4F202010A6842F010020A600A6822F07D
:1006200007020A600A6842F002020A60016801607B
:1006300001680160016841F480610160016821F492
:100640007C110160016841F4E811016050F8041C5C
:1006500041F0807140F8041C50F8041C8901FBD55E
:10066000016821F003010160016841F002010160AD
:10067000016801F00C010829FAD102B070470000AE
:1006800040F26803C2F20003186040F26400C2F254
:100690000000016040F27400C2F200000260704786
:1006A00080B541F20000C4F202000168002241F06E
:1006B000010101604168CFF6FF021140416001680D
:1006C0004FF6FF72CFF6F66211400160016821F427
:1006D00080210160416821F4FE0141604FF41F0157
:1006E0008160FFF769FF4EF60850CEF200004FF030
:1006F0000061016080BD00000288002942F0010312
:1007000008BF22F0010303807047000080B584B069
:1007100041F61F4001904FF6FF70029001A94FF083
:10072000804000F00BF84FF080400121FFF7E4FF1C
:1007300004B080BD808C70478184704740F6FF33E1
:10074000B0F800C0C4F2000398420FDCB0F1804F53
:100750001ED040F20043C4F20003984218D040F685
:100760000003C4F20003984212D016E040F60043A2
:10077000C4F2000398420BD043F20043C4F20103D9
:10078000984205D042F60043C4F20103984204D1D6
:100790004B882CF0700243EA020C41F2004240F414
:1007A0008063C4F20002934204D0CA882CF44073E0
:1007B00042EA030CA0F800C08A888285A0F180423A
:1007C000A2F596320B884FEAB222072A038507D892
:1007D000012303FA02F212F0E50F1CBF097A018629
:1007E0000121818270470000FFF762FEFFF7CAFD1A
:1007F000FFF78CFFFFF772FEFFF720FD4CF6CD40B0
:100800004DF20A71C3F6CC50C3F623414FF07E522D
:10081000FFF736FF42F2004440F27A0540F27806D4
:10082000C4F20104C2F20005C2F200062046FFF73E
:100830002DFD288000F0AAFC00F00AF800F08AFCE8
:100840003080FFF797FE4FF47A70FFF789FDEDE7F0
:100850002DE9F04740F26409C2F2000940F2680154
:10086000D9F80050C2F2000109680446284600F099
:100870004DFB0146284600F0ABFB40F2700AC2F285
:10088000000A074640F26C00DAF80060C2F200008D
:1008900007602046314600F059FD0146384600F019
:1008A00089FC0146304600F031FB804640F2600092
:1008B000C2F20000C0F80080384600F0FBFA0B4698
:1008C00000210246C3F6F071002000F009FA074645
:1008D00028460C4600F0EEFA02460B463846214602
:1008E00000F000F905460F463046414600F02EFD67
:1008F00020F0004000F0DEFA044640F27400C2F23C
:10090000000000680E4600F0D5FA2246334600F09B
:10091000E9F802460B462846394600F03BF800F05D
:1009200007F8C9F800004046CAF80080BDE8F08723
:1009300021F0004201F00043A2F16052B2F5801FA5
:1009400028BFD2F17F6C0BD95FEA001C43EAC202D8
:1009500042EB507018BF704728BF20F0010070476D
:10096000B2F5801FBCBF184670474FEA410C1CF51A
:10097000001F02D2084600F0E4BC70B500F05CF93C
:1009800000000089FFF7F6BF4FF00040A0F580009F
:100990007047000010B591EA030F48BF83F0004391
:1009A00000F1A681841A71EB030C05D2121943EBF6
:1009B0000C03001B61EB0C014FEA1154A4EB135C18
:1009C000DFF81CE11EEA430F18BF9EEA445F73D0B4
:1009D00021EA045123EA0E0343F48013DCF1200ED4
:1009E00032D322FA0CFE10EB0E0023FA0CFE41EB80
:1009F0000E01CCF1200E03FA0EFE10EB0E00CCF12E
:100A0000200E51F10001B1F5801F32D201EB0451EB
:100A100012FA0EF2BDE8104058BF7047401C38BFB4
:100A20005FEA420218BF7047002814BF20F001009F
:100A300041F100014FEA410313F5001F38BF704731
:100A4000A1F1C04100F046B9012A43EB0302ACF129
:100A5000200CDCF11F0E32BF4FF0000E23FA0CF316
:100A600010EB030041EB0451B4EB115FD0D0A1EBCC
:100A7000045101F58011490801EB04515FEA30008F
:100A80000ED350F1000038BF12FA0EFE08D1BDE8B7
:100A90001040C9E7401C38BF5FEA4202CAD1C3E731
:100AA000BDE810404FEA410313F5001F38BF7047FF
:100AB000A1F1C04100F00EB99EEA445F08D011EAEE
:100AC0005E0FBDE8104004BF01F0004100207047F8
:100AD000BDE8104070B500F0AFF800BF64FBBE3E4B
:100AE0000000E0FF70B5DFF848C11CEA111E1EBF10
:100AF0001CEA13159EEA0C0F95EA0C0F00F06F80AC
:100B000081EA03044EEAD47EAE4421EA4C1123EA82
:100B10004C1341F4801143F48013AEF17F7EA1FBAE
:100B2000024CA0FB0365361955EB0C05A1FB034CE9
:100B30004CF10003A0FB021C16EB0C06654153F1BF
:100B40000003094218BF46F0010613F4007F0BD1E1
:100B50004FEA03314FEA053041EA155140EA165099
:100B600034036FF003020AE04FEAC3214FEAC520C5
:100B700041EA555140EA5650F4026FF0020202EB8E
:100B80002E4201EB025585EACE710AD05FEA440C91
:100B900018BF24F0004450F1000041F1000120EAA8
:100BA000D47040F2FE7C624500D270BDA84214BFF2
:100BB0004FF080444FF04044002E08BF0024BEF1A7
:100BC000806FA8BFA1F1C041BDE8704080F2828073
:100BD00001F1C04101F000414FF0000070470CEA04
:100BE00013159EEA0C0F18BF95EA0C0F06D081EA88
:100BF000030E4FF000000EF0004170BD00F01CF835
:100C00008900013E00F007B800F009B84FEA430C34
:100C10005FEA5C5C08D081EA030100F05BB84FEA50
:100C2000410C5FEA5C5CF6D102494FF0000070476E
:100C30000000FF070000F87F0EF1020E2EF0030EF9
:100C40005EF8046B364205D4012A43EB030515F523
:100C5000001F12D8012841EB010C1CF5001F0CD815
:100C60000ED14FEAD17C0CEB4C0C0CF1020C15F5BB
:100C7000001F08BF4CEBD37C04E04FF0080C01E0F0
:100C80004FEAD37C0CEB4C0526FA05F606F0070676
:100C9000B6F1040C06D20EEB860CBDE870404CF0A9
:100CA000010C6047DFE80CF0090B02024FF0004135
:100CB000A1F500214FF0000070BD19461046012833
:100CC00051EB010418BFD4F5001484BF002001F0DB
:100CD000004170BD0808A0F500114FEA31017047CE
:100CE00010B591EA030F48BF83F000433FF55AAEB9
:100CF000841A71EB030C07D28CF0004C121943EBF1
:100D00000C03001B61EB0C014FEA1154A4EB135CC4
:100D1000DFF89CE11EEA430F18BF9EEA445F00F033
:100D2000B08021EA045123EA6E035242C3EB6E0302
:100D300038BF5B1EDCF1200E25D322FA0CFE10EB2F
:100D40000E0043FA0CFE41EB0E01CCF1200E03FA2B
:100D50000EFE10EB0E00CCF1200E51F1000129D453
:100D600001EB045112FA0EF2BDE8104058BF704773
:100D7000401C1CBFB2F1004F704700280CBF491C3B
:100D800020F00100704712EB020E43EB030218BF84
:100D90004FF0010E4EEA4202ACF1200CDCF11E0EC7
:100DA00054D943FA0CFE10EB0E00CCF11E0E51F19B
:100DB000FF31D5D50EF1010E12FA0EFE404141EB86
:100DC000010101EB445C5FEA5C5C10D901EB04516A
:100DD00010EBDE7038BFBEF1004FBDE8104018BF09
:100DE000704700280CBF491C20F00100704730D22A
:100DF0004FEAD42C24F4006411F500111BD0B1FA91
:100E000081F20B3AA41AA41ED2F12003914030FAC9
:100E100003F31943904001EBCC7101EB0451002C1A
:100E2000BDE81040A8BF704701F1C04101F000418A
:100E30004FF000007047B0FA80F310FA03F100D1D0
:100E400010BDE41A173C4805C90AE4E701EB045158
:100E500010BD49104FEA300001EB0451BDE81040CD
:100E600002E04FF0000170474A0008BF0042F8D08E
:100E7000B2F5001F28BF704701F000414FF000009D
:100E800070479EEA445F07D011EA5E0FBDE810404C
:100E900004BF002100207047BDE8104070B5FFF787
:100EA000CBFE00BF40DFF63E104683F000417047A6
:100EB0000000E0FF43004FEAD30C4FEA3C0C4340F4
:100EC0001FBF40070CF1605113F0FE4F70471CF03C
:100ED000006F03D10CF00041002070470CF000437C
:100EE00043EA507040EACC0010B500F0E4F900BFCE
:100EF000000000924FEA0001FFF7ECBE4FF0004106
:100F0000A1F500214FF000007047000090EA010FAA
:100F100048BF81F0004100F12082421A3CBF801A94
:100F200089184FEAD052A2EBD1534FF07F4C1CEA04
:100F3000410F18BF9CEA026F00F03B804FF0004C5D
:100F40004CEA00204CEA012121FA03FC10EB0C0CC6
:100F50001ED202F1FF325FEA1C2040EBC25038BFC4
:100F600070471CF07F0F4FEA400C18BFBCF17F4F59
:100F700038BF7047C3F12003994008BF20F001003B
:100F8000BCF17F4F38BF7047A0F1C04000F0D9B925
:100F90004FEA3C00000A40EBC25028BF1CF0FF0F94
:100FA0004FEA400CE6D018BFBCF17F4F38BF704706
:100FB000EAE79CEA026F05D010EA5C0F08BF00F078
:100FC0000040704710B500F076F900BF64FBBE3EEC
:100FD0004FF47F0C1CEAD0121EBF1CEAD11392EA18
:100FE0000C0F93EA0C0F00F0858090EA010F48BFC8
:100FF00042F4807240F4000C41F400002CF07F4178
:1010000020F07F4000B5A2EB030281420FF2081CE2
:10101000ACEB504E9EF800E0C0F100004FEA4E0EDF
:1010200000FB0EFC38BF49004FEA2C1C0CFB0EF3F2
:101030004FEACE1E0EEB635E4FEA112C0EFB0CFC4A
:101040004FEAC1214FEA1C5300FB031102F5FA02DB
:101050004FEA112C0EFB0CFC4FEA01314FEADC4C3D
:1010600000FB0C1142EB2242C14228BF09184CEB95
:1010700003335DF804EB10EB410143EBC250B2F5D2
:101080007C0F38BF704729D512F0F00F1CBF00F15C
:10109000C04000F0004070470081828384858687CD
:1010A00088898B8C8D8E8F919293959697999A9C27
:1010B0009D9FA0A2A3A5A7A8AAACAEB0B2B3B5B796
:1010C000B9BCBEC0C2C5C7C9CCCED1D4D7D9DCDF6C
:1010D000E2E6E9ECF0F3F7FAFE0000004FEA400C1C
:1010E0000CF1807CBCF17E4F28BF7047B0F1C0404E
:1010F00000F027B90CEAD11390EA010F48BF42F47F
:101100008072624538BF634507D213F47F0F16D053
:1011100080EA010000F00040704710B500F0CBF805
:10112000097EFC3E00F005B880EA010000F00040B6
:10113000704780EA010000F0004000F002B912F4AC
:101140007F0F04BF0248704780EA010000F0F9B841
:101150000000C07F41000B0ED3F19E0208D950F46D
:1011600000034FEA032323FA02F048BF40427047CE
:1011700010B500F0A0F800BF49922480002070470D
:101180006FF0004282EA200070470000B0FA80F35E
:1011900010FA03F2C3F19D030AD0D90501EB122026
:1011A000530638BF704700F1010008BF20F001006E
:1011B000704700004FF47F0C1CEAD0121EBF1CEADF
:1011C000D11392EA0C0F93EA0C0F00F0478090EADB
:1011D000010F48BF42F480724FF0004C4CEA0020EF
:1011E0004CEA012102EB0302A0FB0113A2F500026D
:1011F000002918BF43F001035B0028BF4FEA330307
:1012000042EB22425FEA132C4CEBC2502EBFBCEBE8
:10121000436FB2F57C0F70474FEA036CBCF1004F8F
:1012200008BF20F00100B2F57C0F38BF70470BD526
:1012300082F0FF0212F5803FC8BF704700F1C04046
:10124000D8BF00F00040704700F5000C5FEA4C0C7E
:1012500048BF7047B0F1C04000F073B80CEAD1133A
:1012600090EA010F48BF42F48072624538BF63457F
:1012700004D280EA010000F00040704710B500F091
:101280001AF800BF8900013E00F007B800F009B865
:101290005FEA410C5FEA1C6C08D080EA010000F0B4
:1012A00050B85FEA400C5FEA1C6CF6D14FF000408A
:1012B000A0F5800070470EF1020E2EF0030E5EF8CE
:1012C000044B244204D44FEA4102B2F17F4F11D8BB
:1012D0004FEA4003B3F17F4F0CD80ED14FEAD07CD8
:1012E0000CEB4C0C0CF1020CB2F17F4F08BF4CEB35
:1012F000D17C04E04FF0080C01E04FEAD17C0CEB0C
:101300004C0324FA03F404F00704B4F1040C06D2ED
:101310000EEB840CBDE810404CF0010C6047DFE898
:101320000CF0070802024FF00040A0F5800010BD4D
:101330000846420018BFD2F1807288BF00F000401A
:1013400010BDFF2141EAD050C005704790EA010F5F
:1013500048BF81F000413FF5E0AD421A04D882F069
:101360000042A0EB020011444FEAD052A2EBD1534D
:101370004FF07F4C1CEA410F18BF9CEA026F4AD025
:101380004FF0004C4CEA00204CEA012121FA03FC0A
:10139000B0EB0C0C0FD412F0FE0F36D05FEA4C000D
:1013A0001DD5001240EBC25038BF70471CF03F0FF4
:1013B00018BF70470BE05FEA1C20A2F1010240EB6E
:1013C000C25038BF70471CF07F0F18BF7047C3F181
:1013D0002003994014BF401E20F0010070474FEADF
:1013E0001223800808BF7047B0FA80FCA2EB0C0201
:1013F000CCF1280C60FA0CF093EA122F04BF00EB3A
:10140000C25070474FEAC3707047130A5FEADC109E
:1014100008BF7047F6E79CEA026F04D010EA5C0F41
:1014200008BF0020704710B5FFF745FF40DFF63ECC
:1014300081F00040704700004814000800000020C0
:081440008006000028010008ED
:04000005080000ED02
:00000001FF
