:020000040800F2
:10000000680600206D0100087501000877010008EE
:10001000790100087B0100087D0100080000000054
:100020000000000000000000000000007F01000848
:10003000810100080000000083010008850100081C
:100040008701000887010008870100088701000870
:100050008701000887010008870100088701000860
:100060008701000887010008870100088701000850
:100070008701000887010008870100088701000840
:100080008701000887010008870100088701000830
:100090008701000887010008870100088701000820
:1000A0008701000887010008870100088701000810
:1000B0008701000887010008870100088701000800
:1000C00087010008870100088701000887010008F0
:1000D00087010008870100088701000887010008E0
:1000E00087010008870100088701000800F002F876
:1000F00000F02CF80AA090E8000C82448344AAF196
:100100000107DA4501D100F021F8AFF2090EBAE893
:100110000F0013F0010F18BFFB1A43F0010318473B
:1001200094050000A40500000023002400250026FB
:10013000103A28BF78C1FBD8520728BF30C148BF4A
:100140000B6070471FB51FBD10B510BD00F031F832
:100150001146FFF7F7FF00F081FA00F04FF803B403
:10016000FFF7F2FF03BC00F057F800000948804792
:1001700009480047FEE7FEE7FEE7FEE7FEE7FEE789
:10018000FEE7FEE7FEE7FEE704480549054A064BA1
:100190007047000015050008ED0000086800002009
:1001A000680600206802002068020020704770473F
:1001B0007047754600F02CF8AE4605006946534678
:1001C00020F00700854618B020B5FFF7DDFFBDE839
:1001D00020404FF000064FF000074FF000084FF0AE
:1001E000000BAC46ACE8C009ACE8C009ACE8C009FB
:1001F000ACE8C00921F007018D46704710B50446F0
:10020000AFF300802046BDE81040FFF7A8BF000014
:10021000004870470000002001491820ABBEFEE7EF
:10022000260002007047000010B504464FF08040E1
:10023000002100F0BBF904EB840044004FF0804043
:1002400000F0B2F98442F9D810BD000080B582B048
:10025000F020C1F60300019040F60000C4F2010056
:1002600001A900F003F802B080BD00002DE9F041C3
:10027000CA7802F00F0CD30644BF8B784CEA030C0B
:1002800009880B0621D0056800234FF001084FF0C4
:100290000F0E002608E000BF282A08BF476101367C
:1002A000082E03F104030FD008FA06F70F42F6D028
:1002B0000EFA03F425EA04040CFA03F5482A45EA89
:1002C0000405E9D10761EAE70560B1F5807F38BF31
:1002D000BDE8F081446800234FF4807E4FF00F08A2
:1002E000002607E0282A08BF47610136082E03F1DF
:1002F000040310D00EFA06F707EA0105BD42F4D157
:1003000008FA03F5AC430CFA03F5482A44EA05045D
:10031000E8D10761E9E74460BDE8F0818068084002
:1003200018BF012070470000002941F21C01C4F2EF
:1003300002010A680CBF22EA0000104308607047FF
:10034000002941F21801C4F202010A680CBF22EA36
:10035000000010430860704780B504200121FFF7BA
:10036000EFFF01200121FFF7DFFF80BD0288002998
:1003700042F0400308BF22F04003038070470000B2
:1003800010B586B00020CDF80600ADF80400CDF819
:100390000A004FF4E020CDF8120040F2002043F2B2
:1003A0000004C0F21800C4F20104CDF80E0001A947
:1003B000204600F00FF820460121FFF7D7FF06B0D6
:1003C00010BD00000089084018BF012070470000E0
:1003D000808970472DE9F04102880B8802F4415C66
:1003E0004A88B1F804E043EA0C03CC881A430D892B
:1003F00042EA0E024E8922438F892A43B1F80E80C9
:1004000032433A4342EA08020280828B22F40062BD
:100410008283098A0182BDE8F0810000B0B543F211
:100420000004C4F2010400BF20460121FFF7CAFF07
:100430000028F9D02046FFF7CBFF05462046802153
:10044000FFF7C0FF0128F9D0E8B2B0BD80B500F0D9
:1004500001F880BD82B041F204000021C4F2020024
:100460000191009150F8041C41F4803140F8041CC3
:1004700050F8041C01F400310091019901310191FF
:10048000009919B90199B1F5A06FF1D150F8041C88
:10049000890354BF0021012100910099012936D11F
:1004A00042F20001C4F202010A6842F010020A603E
:1004B0000A6822F007020A600A6842F002020A6033
:1004C0000168016001680160016841F480610160B8
:1004D000016821F47C110160016841F4E8110160B8
:1004E00050F8041C41F0807140F8041C50F8041CC2
:1004F0008901FBD5016821F003010160016841F029
:1005000002010160016801F00C010829FAD102B072
:100510007047000080B541F20000C4F2020001689B
:10052000002241F0010101604168CFF6FF02114055
:10053000416001684FF6FF72CFF6F662114001602C
:10054000016821F480210160416821F4FE014160CD
:100550004FF41F018160FFF779FF4EF60850CEF28D
:1005600000004FF00061016080BD0000028800299A
:1005700042F0010308BF22F001030380704700002E
:1005800080B584B041F61F4001904FF6FF70029095
:1005900001A94FF0804000F00BF84FF0804001219E
:1005A000FFF7E4FF04B080BD808C70478184704702
:1005B00040F6FF33B0F800C0C4F2000398420FDCED
:1005C000B0F1804F1ED040F20043C4F200039842C5
:1005D00018D040F60003C4F20003984212D016E08F
:1005E00040F60043C4F2000398420BD043F20043AC
:1005F000C4F20103984205D042F60043C4F201035D
:10060000984204D14B882CF0700243EA020C41F26C
:10061000004240F48063C4F20002934204D0CA88CE
:100620002CF4407342EA030CA0F800C08A8882854B
:10063000A0F18042A2F596320B884FEAB222072A37
:10064000038507D8012303FA02F212F0E50F1CBF5D
:10065000097A0186012181827047000040F600047A
:10066000C4F20104FFF778FEFFF7F0FDFFF788FF03
:10067000FFF786FE40F26000C2F20000451E00BF98
:1006800020461021FFF74AFE0128F9D1204610210B
:10069000FFF744FE0028F3D106262F46FFF7BEFEE3
:1006A00007F8010F4FF47A70FFF7BEFD013EF5D158
:1006B000E6E70000C406000800000020680600000D
:0406C0002801000805
:04000005080000ED02
:00000001FF
