:020000040800F2
:10000000680600208901000891010008930100089A
:100010009501000897010008990100080000000000
:100020000000000000000000000000009B0100082C
:100030009D010008000000009F010008A1010008C8
:10004000A3010008A3010008A3010008A301000800
:10005000A3010008A3010008A3010008A3010008F0
:10006000A3010008A3010008A3010008A3010008E0
:10007000A3010008A3010008A3010008A3010008D0
:10008000A3010008A3010008A3010008A3010008C0
:10009000A3010008A3010008A3010008A3010008B0
:1000A000A3010008A3010008A3010008A3010008A0
:1000B000A3010008A3010008A3010008A301000890
:1000C000A3010008A3010008A3010008A301000880
:1000D000A3010008A3010008A3010008A301000870
:1000E000A3010008A3010008A301000800F002F822
:1000F00000F03AF80AA090E8000C82448344AAF188
:100100000107DA4501D100F02FF8AFF2090EBAE885
:100110000F0013F0010F18BFFB1A43F0010318473B
:100120007805000098050000103A24BF78C878C10F
:10013000FAD8520724BF30C830C144BF04680C60ED
:10014000704700000023002400250026103A28BF35
:1001500078C1FBD8520728BF30C148BF0B60704739
:100160001FB51FBD10B510BD00F031F81146FFF7E7
:10017000F7FF00F075FA00F04FF803B4FFF7F2FF55
:1001800003BC00F057F800000948804709480047C1
:10019000FEE7FEE7FEE7FEE7FEE7FEE7FEE7FEE737
:1001A000FEE7FEE704480549054A064B7047000094
:1001B00019050008ED00000868000020680600200E
:1001C000680200206802002070477047704775463B
:1001D00000F02CF8AE4605006946534620F00700B3
:1001E000854618B020B5FFF7DDFFBDE820404FF091
:1001F00000064FF000074FF000084FF0000BAC4630
:10020000ACE8C009ACE8C009ACE8C009ACE8C0097A
:1002100021F007018D46704710B50446AFF300800A
:100220002046BDE81040FFF7A8BF00000048704717
:100230000800002001491820ABBEFEE7260002009E
:100240007047000010B504464FF08040002100F0D8
:10025000AFF904EB840044004FF0804000F0A6F9B1
:100260008442F9D810BD000080B582B0F020C1F6FC
:100270000300019040F60000C4F2010001A900F063
:1002800003F802B080BD00002DE9F041CA7802F009
:100290000F0CD30644BF8B784CEA030C09880B067D
:1002A00021D0056800234FF001084FF00F0E002603
:1002B00008E000BF282A08BF47610136082E03F175
:1002C00004030FD008FA06F70F42F6D00EFA03F433
:1002D00025EA04040CFA03F5482A45EA0405E9D1A5
:1002E0000761EAE70560B1F5807F38BFBDE8F081BE
:1002F000446800234FF4807E4FF00F08002607E08B
:10030000282A08BF47610136082E03F1040310D0E4
:100310000EFA06F707EA0105BD42F4D108FA03F523
:10032000AC430CFA03F5482A44EA0504E8D1076116
:10033000E9E74460BDE8F0814161704701617047C1
:10034000002941F21C01C4F202010A680CBF22EA32
:100350000000104308607047002941F21801C4F200
:1003600002010A680CBF22EA0000104308607047CF
:1003700080B504200121FFF7EFFF01200121FFF7E5
:10038000DFFF80BD80B586B04FF48270CDF80600E7
:100390000020ADF80400CDF80A004FF4E020CDF8BD
:1003A000120040F20020C0F21800CDF80E0043F217
:1003B0000000C4F2010001A900F00AF806B080BDF7
:1003C0000089084018BF01207047000081817047F4
:1003D0002DE9F04102880B8802F4415C4A88B1F8AB
:1003E00004E043EA0C03CC881A430D8942EA0E026A
:1003F0004E8922438F892A43B1F80E8032433A4313
:1004000042EA08020280828B22F400628283098A17
:100410000182BDE8F081000070B540F60004C4F22E
:100420000104054620461021FFF786FF04F52056FB
:1004300030460221FFF7C4FF0028F9D03046294694
:10044000FFF7C4FF20461021FFF778FF70BD0000C2
:1004500080B500F001F880BD82B041F204000021B7
:10046000C4F202000191009150F8041C41F4803163
:1004700040F8041C50F8041C01F40031009101996B
:1004800001310191009919B90199B1F5A06FF1D12C
:1004900050F8041C890354BF0021012100910099E8
:1004A000012936D142F20001C4F202010A6842F089
:1004B00010020A600A6822F007020A600A6842F025
:1004C00002020A600168016001680160016841F48C
:1004D00080610160016821F47C110160016841F4D0
:1004E000E811016050F8041C41F0807140F8041CD0
:1004F00050F8041C8901FBD5016821F0030101605B
:10050000016841F002010160016801F00C01082955
:10051000FAD102B07047000080B541F20000C4F289
:1005200002000168002241F0010101604168CFF63C
:10053000FF021140416001684FF6FF72CFF6F6628C
:1005400011400160016821F480210160416821F4BB
:10055000FE0141604FF41F018160FFF779FF4EF605
:100560000850CEF200004FF00061016080BD000035
:100570000288002942F0010308BF22F00103038032
:100580007047000080B584B041F61F4001904FF6DF
:10059000FF70029001A94FF0804000F00BF84FF07F
:1005A00080400121FFF7E4FF04B080BD808C7047DC
:1005B0008184704740F6FF33B0F800C0C4F20003F6
:1005C00098420FDCB0F1804F1ED040F20043C4F2DD
:1005D0000003984218D040F60003C4F2000398428A
:1005E00012D016E040F60043C4F2000398420BD04C
:1005F00043F20043C4F20103984205D042F600439F
:10060000C4F20103984204D14B882CF0700243EAF3
:10061000020C41F2004240F48063C4F200029342B3
:1006200004D0CA882CF4407342EA030CA0F800C03E
:100630008A888285A0F18042A2F596320B884FEA23
:10064000B222072A038507D8012303FA02F212F027
:10065000E50F1CBF097A01860121818270470000E5
:10066000FFF702FEFFF78EFFFFF782FEFFF78AFE1D
:1006700040F20000C2F20000441E00BF06252646DC
:1006800016F8010FFFF7C8FE4FF47A70FFF7DAFD96
:10069000013DF5D1F2E70000B80600080000002097
:1006A0000800000028010008C0060008080000201B
:1006B000600600004401000807040802010300006E
:04000005080000ED02
:00000001FF
